{
  "abi": [
    {
      "type": "constructor",
      "inputs": [],
      "stateMutability": "nonpayable"
    },
    {
      "type": "function",
      "name": "authorizedSigners",
      "inputs": [
        {
          "name": "",
          "type": "address",
          "internalType": "address"
        }
      ],
      "outputs": [
        {
          "name": "",
          "type": "bool",
          "internalType": "bool"
        }
      ],
      "stateMutability": "view"
    },
    {
      "type": "function",
      "name": "checkDocument",
      "inputs": [
        {
          "name": "_docHash",
          "type": "bytes32",
          "internalType": "bytes32"
        }
      ],
      "outputs": [
        {
          "name": "",
          "type": "bool",
          "internalType": "bool"
        }
      ],
      "stateMutability": "view"
    },
    {
      "type": "function",
      "name": "eip712Domain",
      "inputs": [],
      "outputs": [
        {
          "name": "fields",
          "type": "bytes1",
          "internalType": "bytes1"
        },
        {
          "name": "name",
          "type": "string",
          "internalType": "string"
        },
        {
          "name": "version",
          "type": "string",
          "internalType": "string"
        },
        {
          "name": "chainId",
          "type": "uint256",
          "internalType": "uint256"
        },
        {
          "name": "verifyingContract",
          "type": "address",
          "internalType": "address"
        },
        {
          "name": "salt",
          "type": "bytes32",
          "internalType": "bytes32"
        },
        {
          "name": "extensions",
          "type": "uint256[]",
          "internalType": "uint256[]"
        }
      ],
      "stateMutability": "view"
    },
    {
      "type": "function",
      "name": "getDomainSeparator",
      "inputs": [],
      "outputs": [
        {
          "name": "",
          "type": "bytes32",
          "internalType": "bytes32"
        }
      ],
      "stateMutability": "view"
    },
    {
      "type": "function",
      "name": "isAuthorizedSigner",
      "inputs": [
        {
          "name": "_signer",
          "type": "address",
          "internalType": "address"
        }
      ],
      "outputs": [
        {
          "name": "",
          "type": "bool",
          "internalType": "bool"
        }
      ],
      "stateMutability": "view"
    },
    {
      "type": "function",
      "name": "issueDocument",
      "inputs": [
        {
          "name": "doc",
          "type": "tuple",
          "internalType": "struct Tasdiqi.Document",
          "components": [
            {
              "name": "document_number",
              "type": "string",
              "internalType": "string"
            },
            {
              "name": "identity_hash",
              "type": "bytes32",
              "internalType": "bytes32"
            },
            {
              "name": "file_hash",
              "type": "bytes32",
              "internalType": "bytes32"
            }
          ]
        },
        {
          "name": "signature",
          "type": "bytes",
          "internalType": "bytes"
        }
      ],
      "outputs": [],
      "stateMutability": "nonpayable"
    },
    {
      "type": "function",
      "name": "owner",
      "inputs": [],
      "outputs": [
        {
          "name": "",
          "type": "address",
          "internalType": "address"
        }
      ],
      "stateMutability": "view"
    },
    {
      "type": "function",
      "name": "renounceOwnership",
      "inputs": [],
      "outputs": [],
      "stateMutability": "nonpayable"
    },
    {
      "type": "function",
      "name": "setSignerStatus",
      "inputs": [
        {
          "name": "_signer",
          "type": "address",
          "internalType": "address"
        },
        {
          "name": "status",
          "type": "bool",
          "internalType": "bool"
        }
      ],
      "outputs": [],
      "stateMutability": "nonpayable"
    },
    {
      "type": "function",
      "name": "transferOwnership",
      "inputs": [
        {
          "name": "newOwner",
          "type": "address",
          "internalType": "address"
        }
      ],
      "outputs": [],
      "stateMutability": "nonpayable"
    },
    {
      "type": "function",
      "name": "verifiedDocuments",
      "inputs": [
        {
          "name": "",
          "type": "bytes32",
          "internalType": "bytes32"
        }
      ],
      "outputs": [
        {
          "name": "",
          "type": "bool",
          "internalType": "bool"
        }
      ],
      "stateMutability": "view"
    },
    {
      "type": "event",
      "name": "DocumentIssued",
      "inputs": [
        {
          "name": "identityHash",
          "type": "bytes32",
          "indexed": true,
          "internalType": "bytes32"
        },
        {
          "name": "fileHash",
          "type": "bytes32",
          "indexed": true,
          "internalType": "bytes32"
        },
        {
          "name": "documentNumber",
          "type": "string",
          "indexed": false,
          "internalType": "string"
        },
        {
          "name": "signer",
          "type": "address",
          "indexed": true,
          "internalType": "address"
        }
      ],
      "anonymous": false
    },
    {
      "type": "event",
      "name": "EIP712DomainChanged",
      "inputs": [],
      "anonymous": false
    },
    {
      "type": "event",
      "name": "OwnershipTransferred",
      "inputs": [
        {
          "name": "previousOwner",
          "type": "address",
          "indexed": true,
          "internalType": "address"
        },
        {
          "name": "newOwner",
          "type": "address",
          "indexed": true,
          "internalType": "address"
        }
      ],
      "anonymous": false
    },
    {
      "type": "event",
      "name": "SignerStatusChanged",
      "inputs": [
        {
          "name": "_signer",
          "type": "address",
          "indexed": true,
          "internalType": "address"
        },
        {
          "name": "_status",
          "type": "bool",
          "indexed": false,
          "internalType": "bool"
        }
      ],
      "anonymous": false
    },
    {
      "type": "error",
      "name": "InvalidShortString",
      "inputs": []
    },
    {
      "type": "error",
      "name": "StringTooLong",
      "inputs": [
        {
          "name": "str",
          "type": "string",
          "internalType": "string"
        }
      ]
    }
  ],
  "bytecode": {
    "object": "0x6101606040523480156200001257600080fd5b506040518060400160405280600d81526020017f546173646971692d554e494441000000000000000000000000000000000000008152506040518060400160405280600181526020017f310000000000000000000000000000000000000000000000000000000000000081525062000095600083620001ad60201b90919060201c565b6101208181525050620000b3600182620001ad60201b90919060201c565b6101408181525050818051906020012060e08181525050808051906020012061010081815250504660a08181525050620000f26200020560201b60201c565b608081815250503073ffffffffffffffffffffffffffffffffffffffff1660c08173ffffffffffffffffffffffffffffffffffffffff168152505050506200014f620001436200026260201b60201c565b6200026a60201b60201c565b6001600460003373ffffffffffffffffffffffffffffffffffffffff1673ffffffffffffffffffffffffffffffffffffffff16815260200190815260200160002060006101000a81548160ff0219169083151502179055506200092b565b6000602083511015620001d357620001cb836200033060201b60201c565b9050620001ff565b82620001e5836200039d60201b60201c565b6000019081620001f6919062000621565b5060ff60001b90505b92915050565b60007f8b73c3c69bb8fe3d512ecc4cf759cc79239f7b179b0ffacaa9a75d522b39400f60e0516101005146306040516020016200024795949392919062000779565b60405160208183030381529060405280519060200120905090565b600033905090565b6000600260009054906101000a900473ffffffffffffffffffffffffffffffffffffffff16905081600260006101000a81548173ffffffffffffffffffffffffffffffffffffffff021916908373ffffffffffffffffffffffffffffffffffffffff1602179055508173ffffffffffffffffffffffffffffffffffffffff168173ffffffffffffffffffffffffffffffffffffffff167f8be0079c531659141344cd1fd0a4f28419497f9722a3daafe3b4186f6b6457e060405160405180910390a35050565b600080829050601f815111156200038057826040517f305a27a900000000000000000000000000000000000000000000000000000000815260040162000377919062000865565b60405180910390fd5b8051816200038e90620008bb565b60001c1760001b915050919050565b6000819050919050565b600081519050919050565b7f4e487b7100000000000000000000000000000000000000000000000000000000600052604160045260246000fd5b7f4e487b7100000000000000000000000000000000000000000000000000000000600052602260045260246000fd5b600060028204905060018216806200042957607f821691505b6020821081036200043f576200043e620003e1565b5b50919050565b60008190508160005260206000209050919050565b60006020601f8301049050919050565b600082821b905092915050565b600060088302620004a97fffffffffffffffffffffffffffffffffffffffffffffffffffffffffffffffff826200046a565b620004b586836200046a565b95508019841693508086168417925050509392505050565b6000819050919050565b6000819050919050565b600062000502620004fc620004f684620004cd565b620004d7565b620004cd565b9050919050565b6000819050919050565b6200051e83620004e1565b620005366200052d8262000509565b84845462000477565b825550505050565b600090565b6200054d6200053e565b6200055a81848462000513565b505050565b5b8181101562000582576200057660008262000543565b60018101905062000560565b5050565b601f821115620005d1576200059b8162000445565b620005a6846200045a565b81016020851015620005b6578190505b620005ce620005c5856200045a565b8301826200055f565b50505b505050565b600082821c905092915050565b6000620005f660001984600802620005d6565b1980831691505092915050565b6000620006118383620005e3565b9150826002028217905092915050565b6200062c82620003a7565b67ffffffffffffffff811115620006485762000647620003b2565b5b62000654825462000410565b6200066182828562000586565b600060209050601f83116001811462000699576000841562000684578287015190505b62000690858262000603565b86555062000700565b601f198416620006a98662000445565b60005b82811015620006d357848901518255600182019150602085019450602081019050620006ac565b86831015620006f35784890151620006ef601f891682620005e3565b8355505b6001600288020188555050505b505050505050565b6000819050919050565b6200071d8162000708565b82525050565b6200072e81620004cd565b82525050565b600073ffffffffffffffffffffffffffffffffffffffff82169050919050565b6000620007618262000734565b9050919050565b620007738162000754565b82525050565b600060a08201905062000790600083018862000712565b6200079f602083018762000712565b620007ae604083018662000712565b620007bd606083018562000723565b620007cc608083018462000768565b9695505050505050565b600082825260208201905092915050565b60005b8381101562000807578082015181840152602081019050620007ea565b60008484015250505050565b6000601f19601f8301169050919050565b60006200083182620003a7565b6200083d8185620007d6565b93506200084f818560208601620007e7565b6200085a8162000813565b840191505092915050565b6000602082019050818103600083015262000881818462000824565b905092915050565b600081519050919050565b6000819050602082019050919050565b6000620008b2825162000708565b80915050919050565b6000620008c88262000889565b82620008d48462000894565b9050620008e181620008a4565b9250602082101562000924576200091f7fffffffffffffffffffffffffffffffffffffffffffffffffffffffffffffffff836020036008026200046a565b831692505b5050919050565b60805160a05160c05160e051610100516101205161014051611a51620009866000396000610327015260006102f301526000610d4801526000610d27015260006109db01526000610a3101526000610a5a0152611a516000f3fe608060405234801561001057600080fd5b50600436106100a95760003560e01c80638d0abcda116100715780638d0abcda1461016c5780638da5cb5b14610188578063c579f21c146101a6578063cbe88026146101c2578063ed24911d146101f2578063f2fde38b14610210576100a9565b80630916f695146100ae57806349045e16146100de5780635d2b6a4e1461010e578063715018a61461013e57806384b0196e14610148575b600080fd5b6100c860048036038101906100c39190610f0a565b61022c565b6040516100d59190610f52565b60405180910390f35b6100f860048036038101906100f39190610fcb565b610256565b6040516101059190610f52565b60405180910390f35b61012860048036038101906101239190610fcb565b6102ac565b6040516101359190610f52565b60405180910390f35b6101466102cc565b005b6101506102e0565b60405161016397969594939291906111b8565b60405180910390f35b61018660048036038101906101819190611268565b6103e2565b005b610190610493565b60405161019d91906112a8565b60405180910390f35b6101c060048036038101906101bb919061134c565b6104bd565b005b6101dc60048036038101906101d79190610f0a565b6106f0565b6040516101e99190610f52565b60405180910390f35b6101fa610710565b60405161020791906113c8565b60405180910390f35b61022a60048036038101906102259190610fcb565b61071f565b005b60006003600083815260200190815260200160002060009054906101000a900460ff169050919050565b6000600460008373ffffffffffffffffffffffffffffffffffffffff1673ffffffffffffffffffffffffffffffffffffffff16815260200190815260200160002060009054906101000a900460ff169050919050565b60046020528060005260406000206000915054906101000a900460ff1681565b6102d46107a2565b6102de6000610820565b565b60006060806000806000606061032060007f00000000000000000000000000000000000000000000000000000000000000006108e690919063ffffffff16565b61035460017f00000000000000000000000000000000000000000000000000000000000000006108e690919063ffffffff16565b46306000801b600067ffffffffffffffff811115610375576103746113e3565b5b6040519080825280602002602001820160405280156103a35781602001602082028036833780820191505090505b507f0f00000000000000000000000000000000000000000000000000000000000000959493929190965096509650965096509650965090919293949596565b6103ea6107a2565b80600460008473ffffffffffffffffffffffffffffffffffffffff1673ffffffffffffffffffffffffffffffffffffffff16815260200190815260200160002060006101000a81548160ff0219169083151502179055508173ffffffffffffffffffffffffffffffffffffffff167f89cf3183fbdd7fed09f147946384db4be03e9e35a4c862c059f1be7e9e287ab5826040516104879190610f52565b60405180910390a25050565b6000600260009054906101000a900473ffffffffffffffffffffffffffffffffffffffff16905090565b600360008460400135815260200190815260200160002060009054906101000a900460ff1615610522576040517f08c379a000000000000000000000000000000000000000000000000000000000815260040161051990611484565b60405180910390fd5b60007ff0d4101af67cd9b0bc6b8a1c193eefd497fa167d29d21d20a5d3111a8e5a862284806000019061055591906114b3565b604051610563929190611555565b604051809103902085602001358660400135604051602001610588949392919061156e565b60405160208183030381529060405280519060200120905060006105ab82610996565b9050600061060685858080601f016020809104026020016040519081016040528093929190818152602001838380828437600081840152601f19601f82011690508083019250505050505050836109b090919063ffffffff16565b905061061181610256565b610650576040517f08c379a0000000000000000000000000000000000000000000000000000000008152600401610647906115ff565b60405180910390fd5b6001600360008860400135815260200190815260200160002060006101000a81548160ff0219169083151502179055508073ffffffffffffffffffffffffffffffffffffffff16866040013587602001357f92d97f31ddd9fe22d9d461edc97bdfdad05b6f1c4e38e71abb3ba6de966181718980600001906106d291906114b3565b6040516106e092919061164c565b60405180910390a4505050505050565b60036020528060005260406000206000915054906101000a900460ff1681565b600061071a6109d7565b905090565b6107276107a2565b600073ffffffffffffffffffffffffffffffffffffffff168173ffffffffffffffffffffffffffffffffffffffff1603610796576040517f08c379a000000000000000000000000000000000000000000000000000000000815260040161078d906116e2565b60405180910390fd5b61079f81610820565b50565b6107aa610a8e565b73ffffffffffffffffffffffffffffffffffffffff166107c8610493565b73ffffffffffffffffffffffffffffffffffffffff161461081e576040517f08c379a00000000000000000000000000000000000000000000000000000000081526004016108159061174e565b60405180910390fd5b565b6000600260009054906101000a900473ffffffffffffffffffffffffffffffffffffffff16905081600260006101000a81548173ffffffffffffffffffffffffffffffffffffffff021916908373ffffffffffffffffffffffffffffffffffffffff1602179055508173ffffffffffffffffffffffffffffffffffffffff168173ffffffffffffffffffffffffffffffffffffffff167f8be0079c531659141344cd1fd0a4f28419497f9722a3daafe3b4186f6b6457e060405160405180910390a35050565b606060ff60001b8314610903576108fc83610a96565b9050610990565b81805461090f9061179d565b80601f016020809104026020016040519081016040528092919081815260200182805461093b9061179d565b80156109885780601f1061095d57610100808354040283529160200191610988565b820191906000526020600020905b81548152906001019060200180831161096b57829003601f168201915b505050505090505b92915050565b60006109a96109a36109d7565b83610b0a565b9050919050565b60008060006109bf8585610b4b565b915091506109cc81610b9c565b819250505092915050565b60007f000000000000000000000000000000000000000000000000000000000000000073ffffffffffffffffffffffffffffffffffffffff163073ffffffffffffffffffffffffffffffffffffffff16148015610a5357507f000000000000000000000000000000000000000000000000000000000000000046145b15610a80577f00000000000000000000000000000000000000000000000000000000000000009050610a8b565b610a88610d02565b90505b90565b600033905090565b60606000610aa383610d98565b90506000602067ffffffffffffffff811115610ac257610ac16113e3565b5b6040519080825280601f01601f191660200182016040528015610af45781602001600182028036833780820191505090505b5090508181528360208201528092505050919050565b60006040517f190100000000000000000000000000000000000000000000000000000000000081528360028201528260228201526042812091505092915050565b6000806041835103610b8c5760008060006020860151925060408601519150606086015160001a9050610b8087828585610de8565b94509450505050610b95565b60006002915091505b9250929050565b60006004811115610bb057610baf6117ce565b5b816004811115610bc357610bc26117ce565b5b0315610cff5760016004811115610bdd57610bdc6117ce565b5b816004811115610bf057610bef6117ce565b5b03610c30576040517f08c379a0000000000000000000000000000000000000000000000000000000008152600401610c2790611849565b60405180910390fd5b60026004811115610c4457610c436117ce565b5b816004811115610c5757610c566117ce565b5b03610c97576040517f08c379a0000000000000000000000000000000000000000000000000000000008152600401610c8e906118b5565b60405180910390fd5b60036004811115610cab57610caa6117ce565b5b816004811115610cbe57610cbd6117ce565b5b03610cfe576040517f08c379a0000000000000000000000000000000000000000000000000000000008152600401610cf590611947565b60405180910390fd5b5b50565b60007f8b73c3c69bb8fe3d512ecc4cf759cc79239f7b179b0ffacaa9a75d522b39400f7f00000000000000000000000000000000000000000000000000000000000000007f00000000000000000000000000000000000000000000000000000000000000004630604051602001610d7d959493929190611967565b60405160208183030381529060405280519060200120905090565b60008060ff8360001c169050601f811115610ddf576040517fb3512b0c00000000000000000000000000000000000000000000000000000000815260040160405180910390fd5b80915050919050565b6000807f7fffffffffffffffffffffffffffffff5d576e7357a4501ddfe92f46681b20a08360001c1115610e23576000600391509150610ec1565b600060018787878760405160008152602001604052604051610e4894939291906119d6565b6020604051602081039080840390855afa158015610e6a573d6000803e3d6000fd5b505050602060405103519050600073ffffffffffffffffffffffffffffffffffffffff168173ffffffffffffffffffffffffffffffffffffffff1603610eb857600060019250925050610ec1565b80600092509250505b94509492505050565b600080fd5b600080fd5b6000819050919050565b610ee781610ed4565b8114610ef257600080fd5b50565b600081359050610f0481610ede565b92915050565b600060208284031215610f2057610f1f610eca565b5b6000610f2e84828501610ef5565b91505092915050565b60008115159050919050565b610f4c81610f37565b82525050565b6000602082019050610f676000830184610f43565b92915050565b600073ffffffffffffffffffffffffffffffffffffffff82169050919050565b6000610f9882610f6d565b9050919050565b610fa881610f8d565b8114610fb357600080fd5b50565b600081359050610fc581610f9f565b92915050565b600060208284031215610fe157610fe0610eca565b5b6000610fef84828501610fb6565b91505092915050565b60007fff0000000000000000000000000000000000000000000000000000000000000082169050919050565b61102d81610ff8565b82525050565b600081519050919050565b600082825260208201905092915050565b60005b8381101561106d578082015181840152602081019050611052565b60008484015250505050565b6000601f19601f8301169050919050565b600061109582611033565b61109f818561103e565b93506110af81856020860161104f565b6110b881611079565b840191505092915050565b6000819050919050565b6110d6816110c3565b82525050565b6110e581610f8d565b82525050565b6110f481610ed4565b82525050565b600081519050919050565b600082825260208201905092915050565b6000819050602082019050919050565b61112f816110c3565b82525050565b60006111418383611126565b60208301905092915050565b6000602082019050919050565b6000611165826110fa565b61116f8185611105565b935061117a83611116565b8060005b838110156111ab5781516111928882611135565b975061119d8361114d565b92505060018101905061117e565b5085935050505092915050565b600060e0820190506111cd600083018a611024565b81810360208301526111df818961108a565b905081810360408301526111f3818861108a565b905061120260608301876110cd565b61120f60808301866110dc565b61121c60a08301856110eb565b81810360c083015261122e818461115a565b905098975050505050505050565b61124581610f37565b811461125057600080fd5b50565b6000813590506112628161123c565b92915050565b6000806040838503121561127f5761127e610eca565b5b600061128d85828601610fb6565b925050602061129e85828601611253565b9150509250929050565b60006020820190506112bd60008301846110dc565b92915050565b600080fd5b6000606082840312156112de576112dd6112c3565b5b81905092915050565b600080fd5b600080fd5b600080fd5b60008083601f84011261130c5761130b6112e7565b5b8235905067ffffffffffffffff811115611329576113286112ec565b5b602083019150836001820283011115611345576113446112f1565b5b9250929050565b60008060006040848603121561136557611364610eca565b5b600084013567ffffffffffffffff81111561138357611382610ecf565b5b61138f868287016112c8565b935050602084013567ffffffffffffffff8111156113b0576113af610ecf565b5b6113bc868287016112f6565b92509250509250925092565b60006020820190506113dd60008301846110eb565b92915050565b7f4e487b7100000000000000000000000000000000000000000000000000000000600052604160045260246000fd5b7f546173646971693a20446f6b756d656e2073756461682074657264616674617260008201527f2e00000000000000000000000000000000000000000000000000000000000000602082015250565b600061146e60218361103e565b915061147982611412565b604082019050919050565b6000602082019050818103600083015261149d81611461565b9050919050565b600080fd5b600080fd5b600080fd5b600080833560016020038436030381126114d0576114cf6114a4565b5b80840192508235915067ffffffffffffffff8211156114f2576114f16114a9565b5b60208301925060018202360383131561150e5761150d6114ae565b5b509250929050565b600081905092915050565b82818337600083830152505050565b600061153c8385611516565b9350611549838584611521565b82840190509392505050565b6000611562828486611530565b91508190509392505050565b600060808201905061158360008301876110eb565b61159060208301866110eb565b61159d60408301856110eb565b6115aa60608301846110eb565b95945050505050565b7f546173646971693a2054616e64612074616e67616e20746964616b2073616800600082015250565b60006115e9601f8361103e565b91506115f4826115b3565b602082019050919050565b60006020820190508181036000830152611618816115dc565b9050919050565b600061162b838561103e565b9350611638838584611521565b61164183611079565b840190509392505050565b6000602082019050818103600083015261166781848661161f565b90509392505050565b7f4f776e61626c653a206e6577206f776e657220697320746865207a65726f206160008201527f6464726573730000000000000000000000000000000000000000000000000000602082015250565b60006116cc60268361103e565b91506116d782611670565b604082019050919050565b600060208201905081810360008301526116fb816116bf565b9050919050565b7f4f776e61626c653a2063616c6c6572206973206e6f7420746865206f776e6572600082015250565b600061173860208361103e565b915061174382611702565b602082019050919050565b600060208201905081810360008301526117678161172b565b9050919050565b7f4e487b7100000000000000000000000000000000000000000000000000000000600052602260045260246000fd5b600060028204905060018216806117b557607f821691505b6020821081036117c8576117c761176e565b5b50919050565b7f4e487b7100000000000000000000000000000000000000000000000000000000600052602160045260246000fd5b7f45434453413a20696e76616c6964207369676e61747572650000000000000000600082015250565b600061183360188361103e565b915061183e826117fd565b602082019050919050565b6000602082019050818103600083015261186281611826565b9050919050565b7f45434453413a20696e76616c6964207369676e6174757265206c656e67746800600082015250565b600061189f601f8361103e565b91506118aa82611869565b602082019050919050565b600060208201905081810360008301526118ce81611892565b9050919050565b7f45434453413a20696e76616c6964207369676e6174757265202773272076616c60008201527f7565000000000000000000000000000000000000000000000000000000000000602082015250565b600061193160228361103e565b915061193c826118d5565b604082019050919050565b6000602082019050818103600083015261196081611924565b9050919050565b600060a08201905061197c60008301886110eb565b61198960208301876110eb565b61199660408301866110eb565b6119a360608301856110cd565b6119b060808301846110dc565b9695505050505050565b600060ff82169050919050565b6119d0816119ba565b82525050565b60006080820190506119eb60008301876110eb565b6119f860208301866119c7565b611a0560408301856110eb565b611a1260608301846110eb565b9594505050505056fea2646970667358221220946793565571503103514f52b9a67af38b36d9101fcf58fc1403c3abba73d3e564736f6c63430008130033",
    "linkReferences": {}
  },
  "methodIdentifiers": {
    "authorizedSigners(address)": "5d2b6a4e",
    "checkDocument(bytes32)": "0916f695",
    "eip712Domain()": "84b0196e",
    "getDomainSeparator()": "ed24911d",
    "isAuthorizedSigner(address)": "49045e16",
    "issueDocument((string,bytes32,bytes32),bytes)": "c579f21c",
    "owner()": "8da5cb5b",
    "renounceOwnership()": "715018a6",
    "setSignerStatus(address,bool)": "8d0abcda",
    "transferOwnership(address)": "f2fde38b",
    "verifiedDocuments(bytes32)": "cbe88026"
  },
  "id": 26
}