{
  "abi": [
    {
      "type": "constructor",
      "inputs": [],
      "stateMutability": "nonpayable"
    },
    {
      "type": "function",
      "name": "authorizedSigners",
      "inputs": [
        {
          "name": "",
          "type": "address",
          "internalType": "address"
        }
      ],
      "outputs": [
        {
          "name": "",
          "type": "bool",
          "internalType": "bool"
        }
      ],
      "stateMutability": "view"
    },
    {
      "type": "function",
      "name": "checkDocument",
      "inputs": [
        {
          "name": "_docHash",
          "type": "bytes32",
          "internalType": "bytes32"
        }
      ],
      "outputs": [
        {
          "name": "",
          "type": "bool",
          "internalType": "bool"
        }
      ],
      "stateMutability": "view"
    },
    {
      "type": "function",
      "name": "eip712Domain",
      "inputs": [],
      "outputs": [
        {
          "name": "fields",
          "type": "bytes1",
          "internalType": "bytes1"
        },
        {
          "name": "name",
          "type": "string",
          "internalType": "string"
        },
        {
          "name": "version",
          "type": "string",
          "internalType": "string"
        },
        {
          "name": "chainId",
          "type": "uint256",
          "internalType": "uint256"
        },
        {
          "name": "verifyingContract",
          "type": "address",
          "internalType": "address"
        },
        {
          "name": "salt",
          "type": "bytes32",
          "internalType": "bytes32"
        },
        {
          "name": "extensions",
          "type": "uint256[]",
          "internalType": "uint256[]"
        }
      ],
      "stateMutability": "view"
    },
    {
      "type": "function",
      "name": "getDomainSeparator",
      "inputs": [],
      "outputs": [
        {
          "name": "",
          "type": "bytes32",
          "internalType": "bytes32"
        }
      ],
      "stateMutability": "view"
    },
    {
      "type": "function",
      "name": "isAuthorizedSigner",
      "inputs": [
        {
          "name": "_signer",
          "type": "address",
          "internalType": "address"
        }
      ],
      "outputs": [
        {
          "name": "",
          "type": "bool",
          "internalType": "bool"
        }
      ],
      "stateMutability": "view"
    },
    {
      "type": "function",
      "name": "issueDocument",
      "inputs": [
        {
          "name": "doc",
          "type": "tuple",
          "internalType": "struct Tasdiqi.Document",
          "components": [
            {
              "name": "nomor_surat",
              "type": "string",
              "internalType": "string"
            },
            {
              "name": "nim",
              "type": "string",
              "internalType": "string"
            },
            {
              "name": "doc_hash",
              "type": "bytes32",
              "internalType": "bytes32"
            }
          ]
        },
        {
          "name": "signature",
          "type": "bytes",
          "internalType": "bytes"
        }
      ],
      "outputs": [],
      "stateMutability": "nonpayable"
    },
    {
      "type": "function",
      "name": "owner",
      "inputs": [],
      "outputs": [
        {
          "name": "",
          "type": "address",
          "internalType": "address"
        }
      ],
      "stateMutability": "view"
    },
    {
      "type": "function",
      "name": "renounceOwnership",
      "inputs": [],
      "outputs": [],
      "stateMutability": "nonpayable"
    },
    {
      "type": "function",
      "name": "setSignerStatus",
      "inputs": [
        {
          "name": "_signer",
          "type": "address",
          "internalType": "address"
        },
        {
          "name": "status",
          "type": "bool",
          "internalType": "bool"
        }
      ],
      "outputs": [],
      "stateMutability": "nonpayable"
    },
    {
      "type": "function",
      "name": "transferOwnership",
      "inputs": [
        {
          "name": "newOwner",
          "type": "address",
          "internalType": "address"
        }
      ],
      "outputs": [],
      "stateMutability": "nonpayable"
    },
    {
      "type": "function",
      "name": "verifiedDocuments",
      "inputs": [
        {
          "name": "",
          "type": "bytes32",
          "internalType": "bytes32"
        }
      ],
      "outputs": [
        {
          "name": "",
          "type": "bool",
          "internalType": "bool"
        }
      ],
      "stateMutability": "view"
    },
    {
      "type": "event",
      "name": "DocumentIssued",
      "inputs": [
        {
          "name": "docHash",
          "type": "bytes32",
          "indexed": true,
          "internalType": "bytes32"
        },
        {
          "name": "nomorSurat",
          "type": "string",
          "indexed": false,
          "internalType": "string"
        },
        {
          "name": "signer",
          "type": "address",
          "indexed": true,
          "internalType": "address"
        }
      ],
      "anonymous": false
    },
    {
      "type": "event",
      "name": "EIP712DomainChanged",
      "inputs": [],
      "anonymous": false
    },
    {
      "type": "event",
      "name": "OwnershipTransferred",
      "inputs": [
        {
          "name": "previousOwner",
          "type": "address",
          "indexed": true,
          "internalType": "address"
        },
        {
          "name": "newOwner",
          "type": "address",
          "indexed": true,
          "internalType": "address"
        }
      ],
      "anonymous": false
    },
    {
      "type": "event",
      "name": "SignerStatusChanged",
      "inputs": [
        {
          "name": "_signer",
          "type": "address",
          "indexed": true,
          "internalType": "address"
        },
        {
          "name": "_status",
          "type": "bool",
          "indexed": false,
          "internalType": "bool"
        }
      ],
      "anonymous": false
    },
    {
      "type": "error",
      "name": "InvalidShortString",
      "inputs": []
    },
    {
      "type": "error",
      "name": "StringTooLong",
      "inputs": [
        {
          "name": "str",
          "type": "string",
          "internalType": "string"
        }
      ]
    }
  ],
  "bytecode": {
    "object": "0x6101606040523480156200001257600080fd5b506040518060400160405280600d81526020017f546173646971692d554e494441000000000000000000000000000000000000008152506040518060400160405280600181526020017f310000000000000000000000000000000000000000000000000000000000000081525062000095600083620001ad60201b90919060201c565b6101208181525050620000b3600182620001ad60201b90919060201c565b6101408181525050818051906020012060e08181525050808051906020012061010081815250504660a08181525050620000f26200020560201b60201c565b608081815250503073ffffffffffffffffffffffffffffffffffffffff1660c08173ffffffffffffffffffffffffffffffffffffffff168152505050506200014f620001436200026260201b60201c565b6200026a60201b60201c565b6001600460003373ffffffffffffffffffffffffffffffffffffffff1673ffffffffffffffffffffffffffffffffffffffff16815260200190815260200160002060006101000a81548160ff0219169083151502179055506200092b565b6000602083511015620001d357620001cb836200033060201b60201c565b9050620001ff565b82620001e5836200039d60201b60201c565b6000019081620001f6919062000621565b5060ff60001b90505b92915050565b60007f8b73c3c69bb8fe3d512ecc4cf759cc79239f7b179b0ffacaa9a75d522b39400f60e0516101005146306040516020016200024795949392919062000779565b60405160208183030381529060405280519060200120905090565b600033905090565b6000600260009054906101000a900473ffffffffffffffffffffffffffffffffffffffff16905081600260006101000a81548173ffffffffffffffffffffffffffffffffffffffff021916908373ffffffffffffffffffffffffffffffffffffffff1602179055508173ffffffffffffffffffffffffffffffffffffffff168173ffffffffffffffffffffffffffffffffffffffff167f8be0079c531659141344cd1fd0a4f28419497f9722a3daafe3b4186f6b6457e060405160405180910390a35050565b600080829050601f815111156200038057826040517f305a27a900000000000000000000000000000000000000000000000000000000815260040162000377919062000865565b60405180910390fd5b8051816200038e90620008bb565b60001c1760001b915050919050565b6000819050919050565b600081519050919050565b7f4e487b7100000000000000000000000000000000000000000000000000000000600052604160045260246000fd5b7f4e487b7100000000000000000000000000000000000000000000000000000000600052602260045260246000fd5b600060028204905060018216806200042957607f821691505b6020821081036200043f576200043e620003e1565b5b50919050565b60008190508160005260206000209050919050565b60006020601f8301049050919050565b600082821b905092915050565b600060088302620004a97fffffffffffffffffffffffffffffffffffffffffffffffffffffffffffffffff826200046a565b620004b586836200046a565b95508019841693508086168417925050509392505050565b6000819050919050565b6000819050919050565b600062000502620004fc620004f684620004cd565b620004d7565b620004cd565b9050919050565b6000819050919050565b6200051e83620004e1565b620005366200052d8262000509565b84845462000477565b825550505050565b600090565b6200054d6200053e565b6200055a81848462000513565b505050565b5b8181101562000582576200057660008262000543565b60018101905062000560565b5050565b601f821115620005d1576200059b8162000445565b620005a6846200045a565b81016020851015620005b6578190505b620005ce620005c5856200045a565b8301826200055f565b50505b505050565b600082821c905092915050565b6000620005f660001984600802620005d6565b1980831691505092915050565b6000620006118383620005e3565b9150826002028217905092915050565b6200062c82620003a7565b67ffffffffffffffff811115620006485762000647620003b2565b5b62000654825462000410565b6200066182828562000586565b600060209050601f83116001811462000699576000841562000684578287015190505b62000690858262000603565b86555062000700565b601f198416620006a98662000445565b60005b82811015620006d357848901518255600182019150602085019450602081019050620006ac565b86831015620006f35784890151620006ef601f891682620005e3565b8355505b6001600288020188555050505b505050505050565b6000819050919050565b6200071d8162000708565b82525050565b6200072e81620004cd565b82525050565b600073ffffffffffffffffffffffffffffffffffffffff82169050919050565b6000620007618262000734565b9050919050565b620007738162000754565b82525050565b600060a08201905062000790600083018862000712565b6200079f602083018762000712565b620007ae604083018662000712565b620007bd606083018562000723565b620007cc608083018462000768565b9695505050505050565b600082825260208201905092915050565b60005b8381101562000807578082015181840152602081019050620007ea565b60008484015250505050565b6000601f19601f8301169050919050565b60006200083182620003a7565b6200083d8185620007d6565b93506200084f818560208601620007e7565b6200085a8162000813565b840191505092915050565b6000602082019050818103600083015262000881818462000824565b905092915050565b600081519050919050565b6000819050602082019050919050565b6000620008b2825162000708565b80915050919050565b6000620008c88262000889565b82620008d48462000894565b9050620008e181620008a4565b9250602082101562000924576200091f7fffffffffffffffffffffffffffffffffffffffffffffffffffffffffffffffff836020036008026200046a565b831692505b5050919050565b60805160a05160c05160e051610100516101205161014051611a6d620009866000396000610327015260006102f301526000610b6c01526000610b4b015260006109b601526000610a0c01526000610a350152611a6d6000f3fe608060405234801561001057600080fd5b50600436106100a95760003560e01c80638d0abcda116100715780638d0abcda1461016c5780638da5cb5b14610188578063cbe88026146101a6578063ed24911d146101d6578063f2fde38b146101f4578063f32d32e914610210576100a9565b80630916f695146100ae57806349045e16146100de5780635d2b6a4e1461010e578063715018a61461013e57806384b0196e14610148575b600080fd5b6100c860048036038101906100c39190610f26565b61022c565b6040516100d59190610f6e565b60405180910390f35b6100f860048036038101906100f39190610fe7565b610256565b6040516101059190610f6e565b60405180910390f35b61012860048036038101906101239190610fe7565b6102ac565b6040516101359190610f6e565b60405180910390f35b6101466102cc565b005b6101506102e0565b60405161016397969594939291906111d4565b60405180910390f35b61018660048036038101906101819190611284565b6103e2565b005b610190610493565b60405161019d91906112c4565b60405180910390f35b6101c060048036038101906101bb9190610f26565b6104bd565b6040516101cd9190610f6e565b60405180910390f35b6101de6104dd565b6040516101eb91906112df565b60405180910390f35b61020e60048036038101906102099190610fe7565b6104ec565b005b61022a60048036038101906102259190611383565b61056f565b005b60006003600083815260200190815260200160002060009054906101000a900460ff169050919050565b6000600460008373ffffffffffffffffffffffffffffffffffffffff1673ffffffffffffffffffffffffffffffffffffffff16815260200190815260200160002060009054906101000a900460ff169050919050565b60046020528060005260406000206000915054906101000a900460ff1681565b6102d46107be565b6102de600061083c565b565b60006060806000806000606061032060007f000000000000000000000000000000000000000000000000000000000000000061090290919063ffffffff16565b61035460017f000000000000000000000000000000000000000000000000000000000000000061090290919063ffffffff16565b46306000801b600067ffffffffffffffff811115610375576103746113ff565b5b6040519080825280602002602001820160405280156103a35781602001602082028036833780820191505090505b507f0f00000000000000000000000000000000000000000000000000000000000000959493929190965096509650965096509650965090919293949596565b6103ea6107be565b80600460008473ffffffffffffffffffffffffffffffffffffffff1673ffffffffffffffffffffffffffffffffffffffff16815260200190815260200160002060006101000a81548160ff0219169083151502179055508173ffffffffffffffffffffffffffffffffffffffff167f89cf3183fbdd7fed09f147946384db4be03e9e35a4c862c059f1be7e9e287ab5826040516104879190610f6e565b60405180910390a25050565b6000600260009054906101000a900473ffffffffffffffffffffffffffffffffffffffff16905090565b60036020528060005260406000206000915054906101000a900460ff1681565b60006104e76109b2565b905090565b6104f46107be565b600073ffffffffffffffffffffffffffffffffffffffff168173ffffffffffffffffffffffffffffffffffffffff1603610563576040517f08c379a000000000000000000000000000000000000000000000000000000000815260040161055a906114a0565b60405180910390fd5b61056c8161083c565b50565b600360008460400135815260200190815260200160002060009054906101000a900460ff16156105d4576040517f08c379a00000000000000000000000000000000000000000000000000000000081526004016105cb90611532565b60405180910390fd5b60007f32aafdcab72104c980ca5173fdc9d69cd98f901348cacf16f5fdc1da834ab3698480600001906106079190611561565b604051610615929190611603565b604051809103902085806020019061062d9190611561565b60405161063b929190611603565b6040518091039020866040013560405160200161065b949392919061161c565b604051602081830303815290604052805190602001209050600061067e82610a69565b905060006106d985858080601f016020809104026020016040519081016040528093929190818152602001838380828437600081840152601f19601f8201169050808301925050505050505083610a8390919063ffffffff16565b90506106e481610256565b610723576040517f08c379a000000000000000000000000000000000000000000000000000000000815260040161071a906116ad565b60405180910390fd5b6001600360008860400135815260200190815260200160002060006101000a81548160ff0219169083151502179055508073ffffffffffffffffffffffffffffffffffffffff1686604001357f09ad432a53a5cae3edf1f3aeea10fd1518407b81bc87c507aaa84ca2d70c859a8880600001906107a09190611561565b6040516107ae9291906116fa565b60405180910390a3505050505050565b6107c6610aaa565b73ffffffffffffffffffffffffffffffffffffffff166107e4610493565b73ffffffffffffffffffffffffffffffffffffffff161461083a576040517f08c379a00000000000000000000000000000000000000000000000000000000081526004016108319061176a565b60405180910390fd5b565b6000600260009054906101000a900473ffffffffffffffffffffffffffffffffffffffff16905081600260006101000a81548173ffffffffffffffffffffffffffffffffffffffff021916908373ffffffffffffffffffffffffffffffffffffffff1602179055508173ffffffffffffffffffffffffffffffffffffffff168173ffffffffffffffffffffffffffffffffffffffff167f8be0079c531659141344cd1fd0a4f28419497f9722a3daafe3b4186f6b6457e060405160405180910390a35050565b606060ff60001b831461091f5761091883610ab2565b90506109ac565b81805461092b906117b9565b80601f0160208091040260200160405190810160405280929190818152602001828054610957906117b9565b80156109a45780601f10610979576101008083540402835291602001916109a4565b820191906000526020600020905b81548152906001019060200180831161098757829003601f168201915b505050505090505b92915050565b60007f000000000000000000000000000000000000000000000000000000000000000073ffffffffffffffffffffffffffffffffffffffff163073ffffffffffffffffffffffffffffffffffffffff16148015610a2e57507f000000000000000000000000000000000000000000000000000000000000000046145b15610a5b577f00000000000000000000000000000000000000000000000000000000000000009050610a66565b610a63610b26565b90505b90565b6000610a7c610a766109b2565b83610bbc565b9050919050565b6000806000610a928585610bfd565b91509150610a9f81610c4e565b819250505092915050565b600033905090565b60606000610abf83610db4565b90506000602067ffffffffffffffff811115610ade57610add6113ff565b5b6040519080825280601f01601f191660200182016040528015610b105781602001600182028036833780820191505090505b5090508181528360208201528092505050919050565b60007f8b73c3c69bb8fe3d512ecc4cf759cc79239f7b179b0ffacaa9a75d522b39400f7f00000000000000000000000000000000000000000000000000000000000000007f00000000000000000000000000000000000000000000000000000000000000004630604051602001610ba19594939291906117ea565b60405160208183030381529060405280519060200120905090565b60006040517f190100000000000000000000000000000000000000000000000000000000000081528360028201528260228201526042812091505092915050565b6000806041835103610c3e5760008060006020860151925060408601519150606086015160001a9050610c3287828585610e04565b94509450505050610c47565b60006002915091505b9250929050565b60006004811115610c6257610c6161183d565b5b816004811115610c7557610c7461183d565b5b0315610db15760016004811115610c8f57610c8e61183d565b5b816004811115610ca257610ca161183d565b5b03610ce2576040517f08c379a0000000000000000000000000000000000000000000000000000000008152600401610cd9906118b8565b60405180910390fd5b60026004811115610cf657610cf561183d565b5b816004811115610d0957610d0861183d565b5b03610d49576040517f08c379a0000000000000000000000000000000000000000000000000000000008152600401610d4090611924565b60405180910390fd5b60036004811115610d5d57610d5c61183d565b5b816004811115610d7057610d6f61183d565b5b03610db0576040517f08c379a0000000000000000000000000000000000000000000000000000000008152600401610da7906119b6565b60405180910390fd5b5b50565b60008060ff8360001c169050601f811115610dfb576040517fb3512b0c00000000000000000000000000000000000000000000000000000000815260040160405180910390fd5b80915050919050565b6000807f7fffffffffffffffffffffffffffffff5d576e7357a4501ddfe92f46681b20a08360001c1115610e3f576000600391509150610edd565b600060018787878760405160008152602001604052604051610e6494939291906119f2565b6020604051602081039080840390855afa158015610e86573d6000803e3d6000fd5b505050602060405103519050600073ffffffffffffffffffffffffffffffffffffffff168173ffffffffffffffffffffffffffffffffffffffff1603610ed457600060019250925050610edd565b80600092509250505b94509492505050565b600080fd5b600080fd5b6000819050919050565b610f0381610ef0565b8114610f0e57600080fd5b50565b600081359050610f2081610efa565b92915050565b600060208284031215610f3c57610f3b610ee6565b5b6000610f4a84828501610f11565b91505092915050565b60008115159050919050565b610f6881610f53565b82525050565b6000602082019050610f836000830184610f5f565b92915050565b600073ffffffffffffffffffffffffffffffffffffffff82169050919050565b6000610fb482610f89565b9050919050565b610fc481610fa9565b8114610fcf57600080fd5b50565b600081359050610fe181610fbb565b92915050565b600060208284031215610ffd57610ffc610ee6565b5b600061100b84828501610fd2565b91505092915050565b60007fff0000000000000000000000000000000000000000000000000000000000000082169050919050565b61104981611014565b82525050565b600081519050919050565b600082825260208201905092915050565b60005b8381101561108957808201518184015260208101905061106e565b60008484015250505050565b6000601f19601f8301169050919050565b60006110b18261104f565b6110bb818561105a565b93506110cb81856020860161106b565b6110d481611095565b840191505092915050565b6000819050919050565b6110f2816110df565b82525050565b61110181610fa9565b82525050565b61111081610ef0565b82525050565b600081519050919050565b600082825260208201905092915050565b6000819050602082019050919050565b61114b816110df565b82525050565b600061115d8383611142565b60208301905092915050565b6000602082019050919050565b600061118182611116565b61118b8185611121565b935061119683611132565b8060005b838110156111c75781516111ae8882611151565b97506111b983611169565b92505060018101905061119a565b5085935050505092915050565b600060e0820190506111e9600083018a611040565b81810360208301526111fb81896110a6565b9050818103604083015261120f81886110a6565b905061121e60608301876110e9565b61122b60808301866110f8565b61123860a0830185611107565b81810360c083015261124a8184611176565b905098975050505050505050565b61126181610f53565b811461126c57600080fd5b50565b60008135905061127e81611258565b92915050565b6000806040838503121561129b5761129a610ee6565b5b60006112a985828601610fd2565b92505060206112ba8582860161126f565b9150509250929050565b60006020820190506112d960008301846110f8565b92915050565b60006020820190506112f46000830184611107565b92915050565b600080fd5b600060608284031215611315576113146112fa565b5b81905092915050565b600080fd5b600080fd5b600080fd5b60008083601f8401126113435761134261131e565b5b8235905067ffffffffffffffff8111156113605761135f611323565b5b60208301915083600182028301111561137c5761137b611328565b5b9250929050565b60008060006040848603121561139c5761139b610ee6565b5b600084013567ffffffffffffffff8111156113ba576113b9610eeb565b5b6113c6868287016112ff565b935050602084013567ffffffffffffffff8111156113e7576113e6610eeb565b5b6113f38682870161132d565b92509250509250925092565b7f4e487b7100000000000000000000000000000000000000000000000000000000600052604160045260246000fd5b7f4f776e61626c653a206e6577206f776e657220697320746865207a65726f206160008201527f6464726573730000000000000000000000000000000000000000000000000000602082015250565b600061148a60268361105a565b91506114958261142e565b604082019050919050565b600060208201905081810360008301526114b98161147d565b9050919050565b7f546173646971693a20446f6b756d656e2073756461682074657264616674617260008201527f2e00000000000000000000000000000000000000000000000000000000000000602082015250565b600061151c60218361105a565b9150611527826114c0565b604082019050919050565b6000602082019050818103600083015261154b8161150f565b9050919050565b600080fd5b600080fd5b600080fd5b6000808335600160200384360303811261157e5761157d611552565b5b80840192508235915067ffffffffffffffff8211156115a05761159f611557565b5b6020830192506001820236038313156115bc576115bb61155c565b5b509250929050565b600081905092915050565b82818337600083830152505050565b60006115ea83856115c4565b93506115f78385846115cf565b82840190509392505050565b60006116108284866115de565b91508190509392505050565b60006080820190506116316000830187611107565b61163e6020830186611107565b61164b6040830185611107565b6116586060830184611107565b95945050505050565b7f546173646971693a2054616e64612074616e67616e20746964616b2073616800600082015250565b6000611697601f8361105a565b91506116a282611661565b602082019050919050565b600060208201905081810360008301526116c68161168a565b9050919050565b60006116d9838561105a565b93506116e68385846115cf565b6116ef83611095565b840190509392505050565b600060208201905081810360008301526117158184866116cd565b90509392505050565b7f4f776e61626c653a2063616c6c6572206973206e6f7420746865206f776e6572600082015250565b600061175460208361105a565b915061175f8261171e565b602082019050919050565b6000602082019050818103600083015261178381611747565b9050919050565b7f4e487b7100000000000000000000000000000000000000000000000000000000600052602260045260246000fd5b600060028204905060018216806117d157607f821691505b6020821081036117e4576117e361178a565b5b50919050565b600060a0820190506117ff6000830188611107565b61180c6020830187611107565b6118196040830186611107565b61182660608301856110e9565b61183360808301846110f8565b9695505050505050565b7f4e487b7100000000000000000000000000000000000000000000000000000000600052602160045260246000fd5b7f45434453413a20696e76616c6964207369676e61747572650000000000000000600082015250565b60006118a260188361105a565b91506118ad8261186c565b602082019050919050565b600060208201905081810360008301526118d181611895565b9050919050565b7f45434453413a20696e76616c6964207369676e6174757265206c656e67746800600082015250565b600061190e601f8361105a565b9150611919826118d8565b602082019050919050565b6000602082019050818103600083015261193d81611901565b9050919050565b7f45434453413a20696e76616c6964207369676e6174757265202773272076616c60008201527f7565000000000000000000000000000000000000000000000000000000000000602082015250565b60006119a060228361105a565b91506119ab82611944565b604082019050919050565b600060208201905081810360008301526119cf81611993565b9050919050565b600060ff82169050919050565b6119ec816119d6565b82525050565b6000608082019050611a076000830187611107565b611a1460208301866119e3565b611a216040830185611107565b611a2e6060830184611107565b9594505050505056fea264697066735822122008609581abef2eb3f9de41bb4f28810e2892d8bdc772d5cf5b3d1e58ddc8982f64736f6c63430008130033",
    "linkReferences": {}
  },
  "methodIdentifiers": {
    "authorizedSigners(address)": "5d2b6a4e",
    "checkDocument(bytes32)": "0916f695",
    "eip712Domain()": "84b0196e",
    "getDomainSeparator()": "ed24911d",
    "isAuthorizedSigner(address)": "49045e16",
    "issueDocument((string,string,bytes32),bytes)": "f32d32e9",
    "owner()": "8da5cb5b",
    "renounceOwnership()": "715018a6",
    "setSignerStatus(address,bool)": "8d0abcda",
    "transferOwnership(address)": "f2fde38b",
    "verifiedDocuments(bytes32)": "cbe88026"
  },
  "id": 27
}