{
  "abi": [
    {
      "type": "constructor",
      "inputs": [],
      "stateMutability": "nonpayable"
    },
    {
      "type": "function",
      "name": "eip712Domain",
      "inputs": [],
      "outputs": [
        {
          "name": "fields",
          "type": "bytes1",
          "internalType": "bytes1"
        },
        {
          "name": "name",
          "type": "string",
          "internalType": "string"
        },
        {
          "name": "version",
          "type": "string",
          "internalType": "string"
        },
        {
          "name": "chainId",
          "type": "uint256",
          "internalType": "uint256"
        },
        {
          "name": "verifyingContract",
          "type": "address",
          "internalType": "address"
        },
        {
          "name": "salt",
          "type": "bytes32",
          "internalType": "bytes32"
        },
        {
          "name": "extensions",
          "type": "uint256[]",
          "internalType": "uint256[]"
        }
      ],
      "stateMutability": "view"
    },
    {
      "type": "function",
      "name": "generateDocumentKey",
      "inputs": [
        {
          "name": "identityHash",
          "type": "bytes32",
          "internalType": "bytes32"
        },
        {
          "name": "fileHash",
          "type": "bytes32",
          "internalType": "bytes32"
        }
      ],
      "outputs": [
        {
          "name": "",
          "type": "bytes32",
          "internalType": "bytes32"
        }
      ],
      "stateMutability": "pure"
    },
    {
      "type": "function",
      "name": "getDocument",
      "inputs": [
        {
          "name": "documentKey",
          "type": "bytes32",
          "internalType": "bytes32"
        }
      ],
      "outputs": [
        {
          "name": "documentNumber",
          "type": "string",
          "internalType": "string"
        },
        {
          "name": "identityHash",
          "type": "bytes32",
          "internalType": "bytes32"
        },
        {
          "name": "fileHash",
          "type": "bytes32",
          "internalType": "bytes32"
        },
        {
          "name": "signer",
          "type": "address",
          "internalType": "address"
        },
        {
          "name": "registeredAt",
          "type": "uint256",
          "internalType": "uint256"
        }
      ],
      "stateMutability": "view"
    },
    {
      "type": "function",
      "name": "getDomainSeparator",
      "inputs": [],
      "outputs": [
        {
          "name": "",
          "type": "bytes32",
          "internalType": "bytes32"
        }
      ],
      "stateMutability": "view"
    },
    {
      "type": "function",
      "name": "isAuthorizedValidator",
      "inputs": [
        {
          "name": "validator",
          "type": "address",
          "internalType": "address"
        }
      ],
      "outputs": [
        {
          "name": "",
          "type": "bool",
          "internalType": "bool"
        }
      ],
      "stateMutability": "view"
    },
    {
      "type": "function",
      "name": "issueDocument",
      "inputs": [
        {
          "name": "doc",
          "type": "tuple",
          "internalType": "struct Tasdiqi.Document",
          "components": [
            {
              "name": "documentNumber",
              "type": "string",
              "internalType": "string"
            },
            {
              "name": "identityHash",
              "type": "bytes32",
              "internalType": "bytes32"
            },
            {
              "name": "fileHash",
              "type": "bytes32",
              "internalType": "bytes32"
            }
          ]
        },
        {
          "name": "signature",
          "type": "bytes",
          "internalType": "bytes"
        }
      ],
      "outputs": [],
      "stateMutability": "nonpayable"
    },
    {
      "type": "function",
      "name": "owner",
      "inputs": [],
      "outputs": [
        {
          "name": "",
          "type": "address",
          "internalType": "address"
        }
      ],
      "stateMutability": "view"
    },
    {
      "type": "function",
      "name": "renounceOwnership",
      "inputs": [],
      "outputs": [],
      "stateMutability": "nonpayable"
    },
    {
      "type": "function",
      "name": "setValidator",
      "inputs": [
        {
          "name": "validator",
          "type": "address",
          "internalType": "address"
        },
        {
          "name": "status",
          "type": "bool",
          "internalType": "bool"
        }
      ],
      "outputs": [],
      "stateMutability": "nonpayable"
    },
    {
      "type": "function",
      "name": "transferOwnership",
      "inputs": [
        {
          "name": "newOwner",
          "type": "address",
          "internalType": "address"
        }
      ],
      "outputs": [],
      "stateMutability": "nonpayable"
    },
    {
      "type": "event",
      "name": "DocumentIssued",
      "inputs": [
        {
          "name": "documentKey",
          "type": "bytes32",
          "indexed": true,
          "internalType": "bytes32"
        },
        {
          "name": "identityHash",
          "type": "bytes32",
          "indexed": true,
          "internalType": "bytes32"
        },
        {
          "name": "fileHash",
          "type": "bytes32",
          "indexed": true,
          "internalType": "bytes32"
        },
        {
          "name": "documentNumber",
          "type": "string",
          "indexed": false,
          "internalType": "string"
        },
        {
          "name": "signer",
          "type": "address",
          "indexed": false,
          "internalType": "address"
        }
      ],
      "anonymous": false
    },
    {
      "type": "event",
      "name": "EIP712DomainChanged",
      "inputs": [],
      "anonymous": false
    },
    {
      "type": "event",
      "name": "OwnershipTransferred",
      "inputs": [
        {
          "name": "previousOwner",
          "type": "address",
          "indexed": true,
          "internalType": "address"
        },
        {
          "name": "newOwner",
          "type": "address",
          "indexed": true,
          "internalType": "address"
        }
      ],
      "anonymous": false
    },
    {
      "type": "event",
      "name": "ValidatorDocumentChanged",
      "inputs": [
        {
          "name": "validator",
          "type": "address",
          "indexed": true,
          "internalType": "address"
        },
        {
          "name": "status",
          "type": "bool",
          "indexed": false,
          "internalType": "bool"
        }
      ],
      "anonymous": false
    },
    {
      "type": "error",
      "name": "InvalidShortString",
      "inputs": []
    },
    {
      "type": "error",
      "name": "StringTooLong",
      "inputs": [
        {
          "name": "str",
          "type": "string",
          "internalType": "string"
        }
      ]
    }
  ],
  "bytecode": {
    "object": "0x6101606040523480156200001257600080fd5b506040518060400160405280600d81526020017f546173646971692d554e494441000000000000000000000000000000000000008152506040518060400160405280600181526020017f310000000000000000000000000000000000000000000000000000000000000081525062000095600083620001ad60201b90919060201c565b6101208181525050620000b3600182620001ad60201b90919060201c565b6101408181525050818051906020012060e08181525050808051906020012061010081815250504660a08181525050620000f26200020560201b60201c565b608081815250503073ffffffffffffffffffffffffffffffffffffffff1660c08173ffffffffffffffffffffffffffffffffffffffff168152505050506200014f620001436200026260201b60201c565b6200026a60201b60201c565b6001600360003373ffffffffffffffffffffffffffffffffffffffff1673ffffffffffffffffffffffffffffffffffffffff16815260200190815260200160002060006101000a81548160ff0219169083151502179055506200092b565b6000602083511015620001d357620001cb836200033060201b60201c565b9050620001ff565b82620001e5836200039d60201b60201c565b6000019081620001f6919062000621565b5060ff60001b90505b92915050565b60007f8b73c3c69bb8fe3d512ecc4cf759cc79239f7b179b0ffacaa9a75d522b39400f60e0516101005146306040516020016200024795949392919062000779565b60405160208183030381529060405280519060200120905090565b600033905090565b6000600260009054906101000a900473ffffffffffffffffffffffffffffffffffffffff16905081600260006101000a81548173ffffffffffffffffffffffffffffffffffffffff021916908373ffffffffffffffffffffffffffffffffffffffff1602179055508173ffffffffffffffffffffffffffffffffffffffff168173ffffffffffffffffffffffffffffffffffffffff167f8be0079c531659141344cd1fd0a4f28419497f9722a3daafe3b4186f6b6457e060405160405180910390a35050565b600080829050601f815111156200038057826040517f305a27a900000000000000000000000000000000000000000000000000000000815260040162000377919062000865565b60405180910390fd5b8051816200038e90620008bb565b60001c1760001b915050919050565b6000819050919050565b600081519050919050565b7f4e487b7100000000000000000000000000000000000000000000000000000000600052604160045260246000fd5b7f4e487b7100000000000000000000000000000000000000000000000000000000600052602260045260246000fd5b600060028204905060018216806200042957607f821691505b6020821081036200043f576200043e620003e1565b5b50919050565b60008190508160005260206000209050919050565b60006020601f8301049050919050565b600082821b905092915050565b600060088302620004a97fffffffffffffffffffffffffffffffffffffffffffffffffffffffffffffffff826200046a565b620004b586836200046a565b95508019841693508086168417925050509392505050565b6000819050919050565b6000819050919050565b600062000502620004fc620004f684620004cd565b620004d7565b620004cd565b9050919050565b6000819050919050565b6200051e83620004e1565b620005366200052d8262000509565b84845462000477565b825550505050565b600090565b6200054d6200053e565b6200055a81848462000513565b505050565b5b8181101562000582576200057660008262000543565b60018101905062000560565b5050565b601f821115620005d1576200059b8162000445565b620005a6846200045a565b81016020851015620005b6578190505b620005ce620005c5856200045a565b8301826200055f565b50505b505050565b600082821c905092915050565b6000620005f660001984600802620005d6565b1980831691505092915050565b6000620006118383620005e3565b9150826002028217905092915050565b6200062c82620003a7565b67ffffffffffffffff811115620006485762000647620003b2565b5b62000654825462000410565b6200066182828562000586565b600060209050601f83116001811462000699576000841562000684578287015190505b62000690858262000603565b86555062000700565b601f198416620006a98662000445565b60005b82811015620006d357848901518255600182019150602085019450602081019050620006ac565b86831015620006f35784890151620006ef601f891682620005e3565b8355505b6001600288020188555050505b505050505050565b6000819050919050565b6200071d8162000708565b82525050565b6200072e81620004cd565b82525050565b600073ffffffffffffffffffffffffffffffffffffffff82169050919050565b6000620007618262000734565b9050919050565b620007738162000754565b82525050565b600060a08201905062000790600083018862000712565b6200079f602083018762000712565b620007ae604083018662000712565b620007bd606083018562000723565b620007cc608083018462000768565b9695505050505050565b600082825260208201905092915050565b60005b8381101562000807578082015181840152602081019050620007ea565b60008484015250505050565b6000601f19601f8301169050919050565b60006200083182620003a7565b6200083d8185620007d6565b93506200084f818560208601620007e7565b6200085a8162000813565b840191505092915050565b6000602082019050818103600083015262000881818462000824565b905092915050565b600081519050919050565b6000819050602082019050919050565b6000620008b2825162000708565b80915050919050565b6000620008c88262000889565b82620008d48462000894565b9050620008e181620008a4565b9250602082101562000924576200091f7fffffffffffffffffffffffffffffffffffffffffffffffffffffffffffffffff836020036008026200046a565b831692505b5050919050565b60805160a05160c05160e0516101005161012051610140516120516200098660003960006103570152600061032301526000610f8d01526000610f6c01526000610c2001526000610c7601526000610c9f01526120516000f3fe608060405234801561001057600080fd5b506004361061009e5760003560e01c8063b10d6b4111610066578063b10d6b411461013b578063bd2f588f1461016f578063c579f21c1461019f578063ed24911d146101bb578063f2fde38b146101d95761009e565b80634623c91d146100a3578063715018a6146100bf57806375a197bd146100c957806384b0196e146100f95780638da5cb5b1461011d575b600080fd5b6100bd60048036038101906100b891906111af565b6101f5565b005b6100c76102a6565b005b6100e360048036038101906100de91906111ef565b6102ba565b6040516100f0919061122b565b60405180910390f35b610101610310565b6040516101149796959493929190611410565b60405180910390f35b610125610412565b6040516101329190611494565b60405180910390f35b610155600480360381019061015091906114db565b61043c565b604051610166959493929190611508565b60405180910390f35b61018960048036038101906101849190611562565b6105ea565b60405161019691906115a2565b60405180910390f35b6101b960048036038101906101b49190611646565b61061d565b005b6101c3610955565b6040516101d091906115a2565b60405180910390f35b6101f360048036038101906101ee91906111ef565b610964565b005b6101fd6109e7565b80600360008473ffffffffffffffffffffffffffffffffffffffff1673ffffffffffffffffffffffffffffffffffffffff16815260200190815260200160002060006101000a81548160ff0219169083151502179055508173ffffffffffffffffffffffffffffffffffffffff167f6876d9bb03353c662fc49f4aba9641904b43780a6ad52878022d025be68946428260405161029a919061122b565b60405180910390a25050565b6102ae6109e7565b6102b86000610a65565b565b6000600360008373ffffffffffffffffffffffffffffffffffffffff1673ffffffffffffffffffffffffffffffffffffffff16815260200190815260200160002060009054906101000a900460ff169050919050565b60006060806000806000606061035060007f0000000000000000000000000000000000000000000000000000000000000000610b2b90919063ffffffff16565b61038460017f0000000000000000000000000000000000000000000000000000000000000000610b2b90919063ffffffff16565b46306000801b600067ffffffffffffffff8111156103a5576103a46116c2565b5b6040519080825280602002602001820160405280156103d35781602001602082028036833780820191505090505b507f0f00000000000000000000000000000000000000000000000000000000000000959493929190965096509650965096509650965090919293949596565b6000600260009054906101000a900473ffffffffffffffffffffffffffffffffffffffff16905090565b60606000806000806000600460008881526020019081526020016000206040518060c00160405290816000820154815260200160018201805461047e90611720565b80601f01602080910402602001604051908101604052809291908181526020018280546104aa90611720565b80156104f75780601f106104cc576101008083540402835291602001916104f7565b820191906000526020600020905b8154815290600101906020018083116104da57829003601f168201915b5050505050815260200160028201548152602001600382015481526020016004820160009054906101000a900473ffffffffffffffffffffffffffffffffffffffff1673ffffffffffffffffffffffffffffffffffffffff1673ffffffffffffffffffffffffffffffffffffffff168152602001600582015481525050905060008160a00151116105bd576040517f08c379a00000000000000000000000000000000000000000000000000000000081526004016105b49061179d565b60405180910390fd5b80602001518160400151826060015183608001518460a00151955095509550955095505091939590929450565b600082826040516020016105ff9291906117bd565b60405160208183030381529060405280519060200120905092915050565b6000610631846020013585604001356105ea565b9050600060046000838152602001908152602001600020600501541461068c576040517f08c379a000000000000000000000000000000000000000000000000000000000815260040161068390611858565b60405180910390fd5b60007f15330eb53f9b8f41d642fa8464f2c38514a0e00b90b3112d74fa58a765cdf2578580600001906106bf9190611887565b6040516106cd929190611929565b6040518091039020866020013587604001356040516020016106f29493929190611942565b604051602081830303815290604052805190602001209050600061071582610bdb565b9050600061077086868080601f016020809104026020016040519081016040528093929190818152602001838380828437600081840152601f19601f8201169050808301925050505050505083610bf590919063ffffffff16565b905061077b816102ba565b6107ba576040517f08c379a00000000000000000000000000000000000000000000000000000000081526004016107b1906119d3565b60405180910390fd5b60004290506040518060c001604052808681526020018980600001906107e09190611887565b8080601f016020809104026020016040519081016040528093929190818152602001838380828437600081840152601f19601f82011690508083019250505050505050815260200189602001358152602001896040013581526020018373ffffffffffffffffffffffffffffffffffffffff168152602001828152506004600087815260200190815260200160002060008201518160000155602082015181600101908161088e9190611b9f565b50604082015181600201556060820151816003015560808201518160040160006101000a81548173ffffffffffffffffffffffffffffffffffffffff021916908373ffffffffffffffffffffffffffffffffffffffff16021790555060a0820151816005015590505087604001358860200135867fa8d471e9cfdc542c0598d1c41e1a2677303a9870f24dbc1a645f594309f360e18b80600001906109339190611887565b8760405161094393929190611c9e565b60405180910390a45050505050505050565b600061095f610c1c565b905090565b61096c6109e7565b600073ffffffffffffffffffffffffffffffffffffffff168173ffffffffffffffffffffffffffffffffffffffff16036109db576040517f08c379a00000000000000000000000000000000000000000000000000000000081526004016109d290611d42565b60405180910390fd5b6109e481610a65565b50565b6109ef610cd3565b73ffffffffffffffffffffffffffffffffffffffff16610a0d610412565b73ffffffffffffffffffffffffffffffffffffffff1614610a63576040517f08c379a0000000000000000000000000000000000000000000000000000000008152600401610a5a90611dae565b60405180910390fd5b565b6000600260009054906101000a900473ffffffffffffffffffffffffffffffffffffffff16905081600260006101000a81548173ffffffffffffffffffffffffffffffffffffffff021916908373ffffffffffffffffffffffffffffffffffffffff1602179055508173ffffffffffffffffffffffffffffffffffffffff168173ffffffffffffffffffffffffffffffffffffffff167f8be0079c531659141344cd1fd0a4f28419497f9722a3daafe3b4186f6b6457e060405160405180910390a35050565b606060ff60001b8314610b4857610b4183610cdb565b9050610bd5565b818054610b5490611720565b80601f0160208091040260200160405190810160405280929190818152602001828054610b8090611720565b8015610bcd5780601f10610ba257610100808354040283529160200191610bcd565b820191906000526020600020905b815481529060010190602001808311610bb057829003601f168201915b505050505090505b92915050565b6000610bee610be8610c1c565b83610d4f565b9050919050565b6000806000610c048585610d90565b91509150610c1181610de1565b819250505092915050565b60007f000000000000000000000000000000000000000000000000000000000000000073ffffffffffffffffffffffffffffffffffffffff163073ffffffffffffffffffffffffffffffffffffffff16148015610c9857507f000000000000000000000000000000000000000000000000000000000000000046145b15610cc5577f00000000000000000000000000000000000000000000000000000000000000009050610cd0565b610ccd610f47565b90505b90565b600033905090565b60606000610ce883610fdd565b90506000602067ffffffffffffffff811115610d0757610d066116c2565b5b6040519080825280601f01601f191660200182016040528015610d395781602001600182028036833780820191505090505b5090508181528360208201528092505050919050565b60006040517f190100000000000000000000000000000000000000000000000000000000000081528360028201528260228201526042812091505092915050565b6000806041835103610dd15760008060006020860151925060408601519150606086015160001a9050610dc58782858561102d565b94509450505050610dda565b60006002915091505b9250929050565b60006004811115610df557610df4611dce565b5b816004811115610e0857610e07611dce565b5b0315610f445760016004811115610e2257610e21611dce565b5b816004811115610e3557610e34611dce565b5b03610e75576040517f08c379a0000000000000000000000000000000000000000000000000000000008152600401610e6c90611e49565b60405180910390fd5b60026004811115610e8957610e88611dce565b5b816004811115610e9c57610e9b611dce565b5b03610edc576040517f08c379a0000000000000000000000000000000000000000000000000000000008152600401610ed390611eb5565b60405180910390fd5b60036004811115610ef057610eef611dce565b5b816004811115610f0357610f02611dce565b5b03610f43576040517f08c379a0000000000000000000000000000000000000000000000000000000008152600401610f3a90611f47565b60405180910390fd5b5b50565b60007f8b73c3c69bb8fe3d512ecc4cf759cc79239f7b179b0ffacaa9a75d522b39400f7f00000000000000000000000000000000000000000000000000000000000000007f00000000000000000000000000000000000000000000000000000000000000004630604051602001610fc2959493929190611f67565b60405160208183030381529060405280519060200120905090565b60008060ff8360001c169050601f811115611024576040517fb3512b0c00000000000000000000000000000000000000000000000000000000815260040160405180910390fd5b80915050919050565b6000807f7fffffffffffffffffffffffffffffff5d576e7357a4501ddfe92f46681b20a08360001c1115611068576000600391509150611106565b60006001878787876040516000815260200160405260405161108d9493929190611fd6565b6020604051602081039080840390855afa1580156110af573d6000803e3d6000fd5b505050602060405103519050600073ffffffffffffffffffffffffffffffffffffffff168173ffffffffffffffffffffffffffffffffffffffff16036110fd57600060019250925050611106565b80600092509250505b94509492505050565b600080fd5b600080fd5b600073ffffffffffffffffffffffffffffffffffffffff82169050919050565b600061114482611119565b9050919050565b61115481611139565b811461115f57600080fd5b50565b6000813590506111718161114b565b92915050565b60008115159050919050565b61118c81611177565b811461119757600080fd5b50565b6000813590506111a981611183565b92915050565b600080604083850312156111c6576111c561110f565b5b60006111d485828601611162565b92505060206111e58582860161119a565b9150509250929050565b6000602082840312156112055761120461110f565b5b600061121384828501611162565b91505092915050565b61122581611177565b82525050565b6000602082019050611240600083018461121c565b92915050565b60007fff0000000000000000000000000000000000000000000000000000000000000082169050919050565b61127b81611246565b82525050565b600081519050919050565b600082825260208201905092915050565b60005b838110156112bb5780820151818401526020810190506112a0565b60008484015250505050565b6000601f19601f8301169050919050565b60006112e382611281565b6112ed818561128c565b93506112fd81856020860161129d565b611306816112c7565b840191505092915050565b6000819050919050565b61132481611311565b82525050565b61133381611139565b82525050565b6000819050919050565b61134c81611339565b82525050565b600081519050919050565b600082825260208201905092915050565b6000819050602082019050919050565b61138781611311565b82525050565b6000611399838361137e565b60208301905092915050565b6000602082019050919050565b60006113bd82611352565b6113c7818561135d565b93506113d28361136e565b8060005b838110156114035781516113ea888261138d565b97506113f5836113a5565b9250506001810190506113d6565b5085935050505092915050565b600060e082019050611425600083018a611272565b818103602083015261143781896112d8565b9050818103604083015261144b81886112d8565b905061145a606083018761131b565b611467608083018661132a565b61147460a0830185611343565b81810360c083015261148681846113b2565b905098975050505050505050565b60006020820190506114a9600083018461132a565b92915050565b6114b881611339565b81146114c357600080fd5b50565b6000813590506114d5816114af565b92915050565b6000602082840312156114f1576114f061110f565b5b60006114ff848285016114c6565b91505092915050565b600060a082019050818103600083015261152281886112d8565b90506115316020830187611343565b61153e6040830186611343565b61154b606083018561132a565b611558608083018461131b565b9695505050505050565b600080604083850312156115795761157861110f565b5b6000611587858286016114c6565b9250506020611598858286016114c6565b9150509250929050565b60006020820190506115b76000830184611343565b92915050565b600080fd5b6000606082840312156115d8576115d76115bd565b5b81905092915050565b600080fd5b600080fd5b600080fd5b60008083601f840112611606576116056115e1565b5b8235905067ffffffffffffffff811115611623576116226115e6565b5b60208301915083600182028301111561163f5761163e6115eb565b5b9250929050565b60008060006040848603121561165f5761165e61110f565b5b600084013567ffffffffffffffff81111561167d5761167c611114565b5b611689868287016115c2565b935050602084013567ffffffffffffffff8111156116aa576116a9611114565b5b6116b6868287016115f0565b92509250509250925092565b7f4e487b7100000000000000000000000000000000000000000000000000000000600052604160045260246000fd5b7f4e487b7100000000000000000000000000000000000000000000000000000000600052602260045260246000fd5b6000600282049050600182168061173857607f821691505b60208210810361174b5761174a6116f1565b5b50919050565b7f546173646971693a20446f63756d656e74206e6f7420466f756e640000000000600082015250565b6000611787601b8361128c565b915061179282611751565b602082019050919050565b600060208201905081810360008301526117b68161177a565b9050919050565b60006040820190506117d26000830185611343565b6117df6020830184611343565b9392505050565b7f546173646971693a20446f6b756d656e2073756461682074657272656769737460008201527f72617369206469206a6172696e67616e20426c6f636b636861696e2e00000000602082015250565b6000611842603c8361128c565b915061184d826117e6565b604082019050919050565b6000602082019050818103600083015261187181611835565b9050919050565b600080fd5b600080fd5b600080fd5b600080833560016020038436030381126118a4576118a3611878565b5b80840192508235915067ffffffffffffffff8211156118c6576118c561187d565b5b6020830192506001820236038313156118e2576118e1611882565b5b509250929050565b600081905092915050565b82818337600083830152505050565b600061191083856118ea565b935061191d8385846118f5565b82840190509392505050565b6000611936828486611904565b91508190509392505050565b60006080820190506119576000830187611343565b6119646020830186611343565b6119716040830185611343565b61197e6060830184611343565b95945050505050565b7f546173646971693a2054616e64612074616e67616e20746964616b2073616800600082015250565b60006119bd601f8361128c565b91506119c882611987565b602082019050919050565b600060208201905081810360008301526119ec816119b0565b9050919050565b60008190508160005260206000209050919050565b60006020601f8301049050919050565b600082821b905092915050565b600060088302611a557fffffffffffffffffffffffffffffffffffffffffffffffffffffffffffffffff82611a18565b611a5f8683611a18565b95508019841693508086168417925050509392505050565b6000819050919050565b6000611a9c611a97611a9284611311565b611a77565b611311565b9050919050565b6000819050919050565b611ab683611a81565b611aca611ac282611aa3565b848454611a25565b825550505050565b600090565b611adf611ad2565b611aea818484611aad565b505050565b5b81811015611b0e57611b03600082611ad7565b600181019050611af0565b5050565b601f821115611b5357611b24816119f3565b611b2d84611a08565b81016020851015611b3c578190505b611b50611b4885611a08565b830182611aef565b50505b505050565b600082821c905092915050565b6000611b7660001984600802611b58565b1980831691505092915050565b6000611b8f8383611b65565b9150826002028217905092915050565b611ba882611281565b67ffffffffffffffff811115611bc157611bc06116c2565b5b611bcb8254611720565b611bd6828285611b12565b600060209050601f831160018114611c095760008415611bf7578287015190505b611c018582611b83565b865550611c69565b601f198416611c17866119f3565b60005b82811015611c3f57848901518255600182019150602085019450602081019050611c1a565b86831015611c5c5784890151611c58601f891682611b65565b8355505b6001600288020188555050505b505050505050565b6000611c7d838561128c565b9350611c8a8385846118f5565b611c93836112c7565b840190509392505050565b60006040820190508181036000830152611cb9818587611c71565b9050611cc8602083018461132a565b949350505050565b7f4f776e61626c653a206e6577206f776e657220697320746865207a65726f206160008201527f6464726573730000000000000000000000000000000000000000000000000000602082015250565b6000611d2c60268361128c565b9150611d3782611cd0565b604082019050919050565b60006020820190508181036000830152611d5b81611d1f565b9050919050565b7f4f776e61626c653a2063616c6c6572206973206e6f7420746865206f776e6572600082015250565b6000611d9860208361128c565b9150611da382611d62565b602082019050919050565b60006020820190508181036000830152611dc781611d8b565b9050919050565b7f4e487b7100000000000000000000000000000000000000000000000000000000600052602160045260246000fd5b7f45434453413a20696e76616c6964207369676e61747572650000000000000000600082015250565b6000611e3360188361128c565b9150611e3e82611dfd565b602082019050919050565b60006020820190508181036000830152611e6281611e26565b9050919050565b7f45434453413a20696e76616c6964207369676e6174757265206c656e67746800600082015250565b6000611e9f601f8361128c565b9150611eaa82611e69565b602082019050919050565b60006020820190508181036000830152611ece81611e92565b9050919050565b7f45434453413a20696e76616c6964207369676e6174757265202773272076616c60008201527f7565000000000000000000000000000000000000000000000000000000000000602082015250565b6000611f3160228361128c565b9150611f3c82611ed5565b604082019050919050565b60006020820190508181036000830152611f6081611f24565b9050919050565b600060a082019050611f7c6000830188611343565b611f896020830187611343565b611f966040830186611343565b611fa3606083018561131b565b611fb0608083018461132a565b9695505050505050565b600060ff82169050919050565b611fd081611fba565b82525050565b6000608082019050611feb6000830187611343565b611ff86020830186611fc7565b6120056040830185611343565b6120126060830184611343565b9594505050505056fea2646970667358221220a1db1d1729ff187024db6754cbbafe0e6a8c26030dd7dc2c18310f306af2621d64736f6c63430008130033",
    "linkReferences": {}
  },
  "methodIdentifiers": {
    "eip712Domain()": "84b0196e",
    "generateDocumentKey(bytes32,bytes32)": "bd2f588f",
    "getDocument(bytes32)": "b10d6b41",
    "getDomainSeparator()": "ed24911d",
    "isAuthorizedValidator(address)": "75a197bd",
    "issueDocument((string,bytes32,bytes32),bytes)": "c579f21c",
    "owner()": "8da5cb5b",
    "renounceOwnership()": "715018a6",
    "setValidator(address,bool)": "4623c91d",
    "transferOwnership(address)": "f2fde38b"
  },
  "id": 26
}