{
  "abi": [
    {
      "type": "constructor",
      "inputs": [],
      "stateMutability": "nonpayable"
    },
    {
      "type": "function",
      "name": "eip712Domain",
      "inputs": [],
      "outputs": [
        {
          "name": "fields",
          "type": "bytes1",
          "internalType": "bytes1"
        },
        {
          "name": "name",
          "type": "string",
          "internalType": "string"
        },
        {
          "name": "version",
          "type": "string",
          "internalType": "string"
        },
        {
          "name": "chainId",
          "type": "uint256",
          "internalType": "uint256"
        },
        {
          "name": "verifyingContract",
          "type": "address",
          "internalType": "address"
        },
        {
          "name": "salt",
          "type": "bytes32",
          "internalType": "bytes32"
        },
        {
          "name": "extensions",
          "type": "uint256[]",
          "internalType": "uint256[]"
        }
      ],
      "stateMutability": "view"
    },
    {
      "type": "function",
      "name": "generateDocumentKey",
      "inputs": [
        {
          "name": "identityHash",
          "type": "bytes32",
          "internalType": "bytes32"
        },
        {
          "name": "fileHash",
          "type": "bytes32",
          "internalType": "bytes32"
        }
      ],
      "outputs": [
        {
          "name": "",
          "type": "bytes32",
          "internalType": "bytes32"
        }
      ],
      "stateMutability": "pure"
    },
    {
      "type": "function",
      "name": "getDocument",
      "inputs": [
        {
          "name": "documentKey",
          "type": "bytes32",
          "internalType": "bytes32"
        }
      ],
      "outputs": [
        {
          "name": "documentNumber",
          "type": "string",
          "internalType": "string"
        },
        {
          "name": "identityHash",
          "type": "bytes32",
          "internalType": "bytes32"
        },
        {
          "name": "fileHash",
          "type": "bytes32",
          "internalType": "bytes32"
        },
        {
          "name": "signer",
          "type": "address",
          "internalType": "address"
        },
        {
          "name": "registeredAt",
          "type": "uint256",
          "internalType": "uint256"
        }
      ],
      "stateMutability": "view"
    },
    {
      "type": "function",
      "name": "getDomainSeparator",
      "inputs": [],
      "outputs": [
        {
          "name": "",
          "type": "bytes32",
          "internalType": "bytes32"
        }
      ],
      "stateMutability": "view"
    },
    {
      "type": "function",
      "name": "isAuthorizedValidator",
      "inputs": [
        {
          "name": "validator",
          "type": "address",
          "internalType": "address"
        }
      ],
      "outputs": [
        {
          "name": "",
          "type": "bool",
          "internalType": "bool"
        }
      ],
      "stateMutability": "view"
    },
    {
      "type": "function",
      "name": "issueDocument",
      "inputs": [
        {
          "name": "doc",
          "type": "tuple",
          "internalType": "struct Tasdiqi.Document",
          "components": [
            {
              "name": "documentNumber",
              "type": "string",
              "internalType": "string"
            },
            {
              "name": "identityHash",
              "type": "bytes32",
              "internalType": "bytes32"
            },
            {
              "name": "fileHash",
              "type": "bytes32",
              "internalType": "bytes32"
            }
          ]
        },
        {
          "name": "signature",
          "type": "bytes",
          "internalType": "bytes"
        }
      ],
      "outputs": [],
      "stateMutability": "nonpayable"
    },
    {
      "type": "function",
      "name": "owner",
      "inputs": [],
      "outputs": [
        {
          "name": "",
          "type": "address",
          "internalType": "address"
        }
      ],
      "stateMutability": "view"
    },
    {
      "type": "function",
      "name": "renounceOwnership",
      "inputs": [],
      "outputs": [],
      "stateMutability": "nonpayable"
    },
    {
      "type": "function",
      "name": "setValidator",
      "inputs": [
        {
          "name": "validator",
          "type": "address",
          "internalType": "address"
        },
        {
          "name": "status",
          "type": "bool",
          "internalType": "bool"
        }
      ],
      "outputs": [],
      "stateMutability": "nonpayable"
    },
    {
      "type": "function",
      "name": "transferOwnership",
      "inputs": [
        {
          "name": "newOwner",
          "type": "address",
          "internalType": "address"
        }
      ],
      "outputs": [],
      "stateMutability": "nonpayable"
    },
    {
      "type": "event",
      "name": "DocumentIssued",
      "inputs": [
        {
          "name": "documentKey",
          "type": "bytes32",
          "indexed": true,
          "internalType": "bytes32"
        },
        {
          "name": "identityHash",
          "type": "bytes32",
          "indexed": true,
          "internalType": "bytes32"
        },
        {
          "name": "fileHash",
          "type": "bytes32",
          "indexed": true,
          "internalType": "bytes32"
        },
        {
          "name": "documentNumber",
          "type": "string",
          "indexed": false,
          "internalType": "string"
        },
        {
          "name": "signer",
          "type": "address",
          "indexed": false,
          "internalType": "address"
        },
        {
          "name": "timestamp",
          "type": "uint256",
          "indexed": false,
          "internalType": "uint256"
        }
      ],
      "anonymous": false
    },
    {
      "type": "event",
      "name": "EIP712DomainChanged",
      "inputs": [],
      "anonymous": false
    },
    {
      "type": "event",
      "name": "OwnershipTransferred",
      "inputs": [
        {
          "name": "previousOwner",
          "type": "address",
          "indexed": true,
          "internalType": "address"
        },
        {
          "name": "newOwner",
          "type": "address",
          "indexed": true,
          "internalType": "address"
        }
      ],
      "anonymous": false
    },
    {
      "type": "event",
      "name": "ValidatorDocumentChanged",
      "inputs": [
        {
          "name": "validator",
          "type": "address",
          "indexed": true,
          "internalType": "address"
        },
        {
          "name": "status",
          "type": "bool",
          "indexed": false,
          "internalType": "bool"
        }
      ],
      "anonymous": false
    },
    {
      "type": "error",
      "name": "InvalidShortString",
      "inputs": []
    },
    {
      "type": "error",
      "name": "StringTooLong",
      "inputs": [
        {
          "name": "str",
          "type": "string",
          "internalType": "string"
        }
      ]
    }
  ],
  "bytecode": {
    "object": "0x6101606040523480156200001257600080fd5b506040518060400160405280600d81526020017f546173646971692d554e494441000000000000000000000000000000000000008152506040518060400160405280600181526020017f310000000000000000000000000000000000000000000000000000000000000081525062000095600083620001ad60201b90919060201c565b6101208181525050620000b3600182620001ad60201b90919060201c565b6101408181525050818051906020012060e08181525050808051906020012061010081815250504660a08181525050620000f26200020560201b60201c565b608081815250503073ffffffffffffffffffffffffffffffffffffffff1660c08173ffffffffffffffffffffffffffffffffffffffff168152505050506200014f620001436200026260201b60201c565b6200026a60201b60201c565b6001600360003373ffffffffffffffffffffffffffffffffffffffff1673ffffffffffffffffffffffffffffffffffffffff16815260200190815260200160002060006101000a81548160ff0219169083151502179055506200092b565b6000602083511015620001d357620001cb836200033060201b60201c565b9050620001ff565b82620001e5836200039d60201b60201c565b6000019081620001f6919062000621565b5060ff60001b90505b92915050565b60007f8b73c3c69bb8fe3d512ecc4cf759cc79239f7b179b0ffacaa9a75d522b39400f60e0516101005146306040516020016200024795949392919062000779565b60405160208183030381529060405280519060200120905090565b600033905090565b6000600260009054906101000a900473ffffffffffffffffffffffffffffffffffffffff16905081600260006101000a81548173ffffffffffffffffffffffffffffffffffffffff021916908373ffffffffffffffffffffffffffffffffffffffff1602179055508173ffffffffffffffffffffffffffffffffffffffff168173ffffffffffffffffffffffffffffffffffffffff167f8be0079c531659141344cd1fd0a4f28419497f9722a3daafe3b4186f6b6457e060405160405180910390a35050565b600080829050601f815111156200038057826040517f305a27a900000000000000000000000000000000000000000000000000000000815260040162000377919062000865565b60405180910390fd5b8051816200038e90620008bb565b60001c1760001b915050919050565b6000819050919050565b600081519050919050565b7f4e487b7100000000000000000000000000000000000000000000000000000000600052604160045260246000fd5b7f4e487b7100000000000000000000000000000000000000000000000000000000600052602260045260246000fd5b600060028204905060018216806200042957607f821691505b6020821081036200043f576200043e620003e1565b5b50919050565b60008190508160005260206000209050919050565b60006020601f8301049050919050565b600082821b905092915050565b600060088302620004a97fffffffffffffffffffffffffffffffffffffffffffffffffffffffffffffffff826200046a565b620004b586836200046a565b95508019841693508086168417925050509392505050565b6000819050919050565b6000819050919050565b600062000502620004fc620004f684620004cd565b620004d7565b620004cd565b9050919050565b6000819050919050565b6200051e83620004e1565b620005366200052d8262000509565b84845462000477565b825550505050565b600090565b6200054d6200053e565b6200055a81848462000513565b505050565b5b8181101562000582576200057660008262000543565b60018101905062000560565b5050565b601f821115620005d1576200059b8162000445565b620005a6846200045a565b81016020851015620005b6578190505b620005ce620005c5856200045a565b8301826200055f565b50505b505050565b600082821c905092915050565b6000620005f660001984600802620005d6565b1980831691505092915050565b6000620006118383620005e3565b9150826002028217905092915050565b6200062c82620003a7565b67ffffffffffffffff811115620006485762000647620003b2565b5b62000654825462000410565b6200066182828562000586565b600060209050601f83116001811462000699576000841562000684578287015190505b62000690858262000603565b86555062000700565b601f198416620006a98662000445565b60005b82811015620006d357848901518255600182019150602085019450602081019050620006ac565b86831015620006f35784890151620006ef601f891682620005e3565b8355505b6001600288020188555050505b505050505050565b6000819050919050565b6200071d8162000708565b82525050565b6200072e81620004cd565b82525050565b600073ffffffffffffffffffffffffffffffffffffffff82169050919050565b6000620007618262000734565b9050919050565b620007738162000754565b82525050565b600060a08201905062000790600083018862000712565b6200079f602083018762000712565b620007ae604083018662000712565b620007bd606083018562000723565b620007cc608083018462000768565b9695505050505050565b600082825260208201905092915050565b60005b8381101562000807578082015181840152602081019050620007ea565b60008484015250505050565b6000601f19601f8301169050919050565b60006200083182620003a7565b6200083d8185620007d6565b93506200084f818560208601620007e7565b6200085a8162000813565b840191505092915050565b6000602082019050818103600083015262000881818462000824565b905092915050565b600081519050919050565b6000819050602082019050919050565b6000620008b2825162000708565b80915050919050565b6000620008c88262000889565b82620008d48462000894565b9050620008e181620008a4565b9250602082101562000924576200091f7fffffffffffffffffffffffffffffffffffffffffffffffffffffffffffffffff836020036008026200046a565b831692505b5050919050565b60805160a05160c05160e05161010051610120516101405161205b6200098660003960006103570152600061032301526000610f8901526000610f6801526000610c1c01526000610c7201526000610c9b015261205b6000f3fe608060405234801561001057600080fd5b506004361061009e5760003560e01c8063b10d6b4111610066578063b10d6b411461013b578063bd2f588f1461016f578063c579f21c1461019f578063ed24911d146101bb578063f2fde38b146101d95761009e565b80634623c91d146100a3578063715018a6146100bf57806375a197bd146100c957806384b0196e146100f95780638da5cb5b1461011d575b600080fd5b6100bd60048036038101906100b891906111ab565b6101f5565b005b6100c76102a6565b005b6100e360048036038101906100de91906111eb565b6102ba565b6040516100f09190611227565b60405180910390f35b610101610310565b604051610114979695949392919061140c565b60405180910390f35b610125610412565b6040516101329190611490565b60405180910390f35b610155600480360381019061015091906114d7565b61043c565b604051610166959493929190611504565b60405180910390f35b6101896004803603810190610184919061155e565b6105ea565b604051610196919061159e565b60405180910390f35b6101b960048036038101906101b49190611642565b61061d565b005b6101c3610951565b6040516101d0919061159e565b60405180910390f35b6101f360048036038101906101ee91906111eb565b610960565b005b6101fd6109e3565b80600360008473ffffffffffffffffffffffffffffffffffffffff1673ffffffffffffffffffffffffffffffffffffffff16815260200190815260200160002060006101000a81548160ff0219169083151502179055508173ffffffffffffffffffffffffffffffffffffffff167f6876d9bb03353c662fc49f4aba9641904b43780a6ad52878022d025be68946428260405161029a9190611227565b60405180910390a25050565b6102ae6109e3565b6102b86000610a61565b565b6000600360008373ffffffffffffffffffffffffffffffffffffffff1673ffffffffffffffffffffffffffffffffffffffff16815260200190815260200160002060009054906101000a900460ff169050919050565b60006060806000806000606061035060007f0000000000000000000000000000000000000000000000000000000000000000610b2790919063ffffffff16565b61038460017f0000000000000000000000000000000000000000000000000000000000000000610b2790919063ffffffff16565b46306000801b600067ffffffffffffffff8111156103a5576103a46116be565b5b6040519080825280602002602001820160405280156103d35781602001602082028036833780820191505090505b507f0f00000000000000000000000000000000000000000000000000000000000000959493929190965096509650965096509650965090919293949596565b6000600260009054906101000a900473ffffffffffffffffffffffffffffffffffffffff16905090565b60606000806000806000600460008881526020019081526020016000206040518060c00160405290816000820154815260200160018201805461047e9061171c565b80601f01602080910402602001604051908101604052809291908181526020018280546104aa9061171c565b80156104f75780601f106104cc576101008083540402835291602001916104f7565b820191906000526020600020905b8154815290600101906020018083116104da57829003601f168201915b5050505050815260200160028201548152602001600382015481526020016004820160009054906101000a900473ffffffffffffffffffffffffffffffffffffffff1673ffffffffffffffffffffffffffffffffffffffff1673ffffffffffffffffffffffffffffffffffffffff168152602001600582015481525050905060008160a00151116105bd576040517f08c379a00000000000000000000000000000000000000000000000000000000081526004016105b490611799565b60405180910390fd5b80602001518160400151826060015183608001518460a00151955095509550955095505091939590929450565b600082826040516020016105ff9291906117b9565b60405160208183030381529060405280519060200120905092915050565b6000610631846020013585604001356105ea565b9050600060046000838152602001908152602001600020600501541461068c576040517f08c379a000000000000000000000000000000000000000000000000000000000815260040161068390611854565b60405180910390fd5b60007f15330eb53f9b8f41d642fa8464f2c38514a0e00b90b3112d74fa58a765cdf2578580600001906106bf9190611883565b6040516106cd929190611925565b6040518091039020866020013587604001356040516020016106f2949392919061193e565b604051602081830303815290604052805190602001209050600061071582610bd7565b9050600061077086868080601f016020809104026020016040519081016040528093929190818152602001838380828437600081840152601f19601f8201169050808301925050505050505083610bf190919063ffffffff16565b905061077b816102ba565b6107ba576040517f08c379a00000000000000000000000000000000000000000000000000000000081526004016107b1906119cf565b60405180910390fd5b6040518060c001604052808581526020018880600001906107db9190611883565b8080601f016020809104026020016040519081016040528093929190818152602001838380828437600081840152601f19601f82011690508083019250505050505050815260200188602001358152602001886040013581526020018273ffffffffffffffffffffffffffffffffffffffff16815260200142815250600460008681526020019081526020016000206000820151816000015560208201518160010190816108899190611b9b565b50604082015181600201556060820151816003015560808201518160040160006101000a81548173ffffffffffffffffffffffffffffffffffffffff021916908373ffffffffffffffffffffffffffffffffffffffff16021790555060a0820151816005015590505086604001358760200135857ff93c078e84c8eb6d8b5140f9fd2686534f4ec1cc715aab4f0e50873619b8732c8a806000019061092e9190611883565b86426040516109409493929190611c9a565b60405180910390a450505050505050565b600061095b610c18565b905090565b6109686109e3565b600073ffffffffffffffffffffffffffffffffffffffff168173ffffffffffffffffffffffffffffffffffffffff16036109d7576040517f08c379a00000000000000000000000000000000000000000000000000000000081526004016109ce90611d4c565b60405180910390fd5b6109e081610a61565b50565b6109eb610ccf565b73ffffffffffffffffffffffffffffffffffffffff16610a09610412565b73ffffffffffffffffffffffffffffffffffffffff1614610a5f576040517f08c379a0000000000000000000000000000000000000000000000000000000008152600401610a5690611db8565b60405180910390fd5b565b6000600260009054906101000a900473ffffffffffffffffffffffffffffffffffffffff16905081600260006101000a81548173ffffffffffffffffffffffffffffffffffffffff021916908373ffffffffffffffffffffffffffffffffffffffff1602179055508173ffffffffffffffffffffffffffffffffffffffff168173ffffffffffffffffffffffffffffffffffffffff167f8be0079c531659141344cd1fd0a4f28419497f9722a3daafe3b4186f6b6457e060405160405180910390a35050565b606060ff60001b8314610b4457610b3d83610cd7565b9050610bd1565b818054610b509061171c565b80601f0160208091040260200160405190810160405280929190818152602001828054610b7c9061171c565b8015610bc95780601f10610b9e57610100808354040283529160200191610bc9565b820191906000526020600020905b815481529060010190602001808311610bac57829003601f168201915b505050505090505b92915050565b6000610bea610be4610c18565b83610d4b565b9050919050565b6000806000610c008585610d8c565b91509150610c0d81610ddd565b819250505092915050565b60007f000000000000000000000000000000000000000000000000000000000000000073ffffffffffffffffffffffffffffffffffffffff163073ffffffffffffffffffffffffffffffffffffffff16148015610c9457507f000000000000000000000000000000000000000000000000000000000000000046145b15610cc1577f00000000000000000000000000000000000000000000000000000000000000009050610ccc565b610cc9610f43565b90505b90565b600033905090565b60606000610ce483610fd9565b90506000602067ffffffffffffffff811115610d0357610d026116be565b5b6040519080825280601f01601f191660200182016040528015610d355781602001600182028036833780820191505090505b5090508181528360208201528092505050919050565b60006040517f190100000000000000000000000000000000000000000000000000000000000081528360028201528260228201526042812091505092915050565b6000806041835103610dcd5760008060006020860151925060408601519150606086015160001a9050610dc187828585611029565b94509450505050610dd6565b60006002915091505b9250929050565b60006004811115610df157610df0611dd8565b5b816004811115610e0457610e03611dd8565b5b0315610f405760016004811115610e1e57610e1d611dd8565b5b816004811115610e3157610e30611dd8565b5b03610e71576040517f08c379a0000000000000000000000000000000000000000000000000000000008152600401610e6890611e53565b60405180910390fd5b60026004811115610e8557610e84611dd8565b5b816004811115610e9857610e97611dd8565b5b03610ed8576040517f08c379a0000000000000000000000000000000000000000000000000000000008152600401610ecf90611ebf565b60405180910390fd5b60036004811115610eec57610eeb611dd8565b5b816004811115610eff57610efe611dd8565b5b03610f3f576040517f08c379a0000000000000000000000000000000000000000000000000000000008152600401610f3690611f51565b60405180910390fd5b5b50565b60007f8b73c3c69bb8fe3d512ecc4cf759cc79239f7b179b0ffacaa9a75d522b39400f7f00000000000000000000000000000000000000000000000000000000000000007f00000000000000000000000000000000000000000000000000000000000000004630604051602001610fbe959493929190611f71565b60405160208183030381529060405280519060200120905090565b60008060ff8360001c169050601f811115611020576040517fb3512b0c00000000000000000000000000000000000000000000000000000000815260040160405180910390fd5b80915050919050565b6000807f7fffffffffffffffffffffffffffffff5d576e7357a4501ddfe92f46681b20a08360001c1115611064576000600391509150611102565b6000600187878787604051600081526020016040526040516110899493929190611fe0565b6020604051602081039080840390855afa1580156110ab573d6000803e3d6000fd5b505050602060405103519050600073ffffffffffffffffffffffffffffffffffffffff168173ffffffffffffffffffffffffffffffffffffffff16036110f957600060019250925050611102565b80600092509250505b94509492505050565b600080fd5b600080fd5b600073ffffffffffffffffffffffffffffffffffffffff82169050919050565b600061114082611115565b9050919050565b61115081611135565b811461115b57600080fd5b50565b60008135905061116d81611147565b92915050565b60008115159050919050565b61118881611173565b811461119357600080fd5b50565b6000813590506111a58161117f565b92915050565b600080604083850312156111c2576111c161110b565b5b60006111d08582860161115e565b92505060206111e185828601611196565b9150509250929050565b6000602082840312156112015761120061110b565b5b600061120f8482850161115e565b91505092915050565b61122181611173565b82525050565b600060208201905061123c6000830184611218565b92915050565b60007fff0000000000000000000000000000000000000000000000000000000000000082169050919050565b61127781611242565b82525050565b600081519050919050565b600082825260208201905092915050565b60005b838110156112b757808201518184015260208101905061129c565b60008484015250505050565b6000601f19601f8301169050919050565b60006112df8261127d565b6112e98185611288565b93506112f9818560208601611299565b611302816112c3565b840191505092915050565b6000819050919050565b6113208161130d565b82525050565b61132f81611135565b82525050565b6000819050919050565b61134881611335565b82525050565b600081519050919050565b600082825260208201905092915050565b6000819050602082019050919050565b6113838161130d565b82525050565b6000611395838361137a565b60208301905092915050565b6000602082019050919050565b60006113b98261134e565b6113c38185611359565b93506113ce8361136a565b8060005b838110156113ff5781516113e68882611389565b97506113f1836113a1565b9250506001810190506113d2565b5085935050505092915050565b600060e082019050611421600083018a61126e565b818103602083015261143381896112d4565b9050818103604083015261144781886112d4565b90506114566060830187611317565b6114636080830186611326565b61147060a083018561133f565b81810360c083015261148281846113ae565b905098975050505050505050565b60006020820190506114a56000830184611326565b92915050565b6114b481611335565b81146114bf57600080fd5b50565b6000813590506114d1816114ab565b92915050565b6000602082840312156114ed576114ec61110b565b5b60006114fb848285016114c2565b91505092915050565b600060a082019050818103600083015261151e81886112d4565b905061152d602083018761133f565b61153a604083018661133f565b6115476060830185611326565b6115546080830184611317565b9695505050505050565b600080604083850312156115755761157461110b565b5b6000611583858286016114c2565b9250506020611594858286016114c2565b9150509250929050565b60006020820190506115b3600083018461133f565b92915050565b600080fd5b6000606082840312156115d4576115d36115b9565b5b81905092915050565b600080fd5b600080fd5b600080fd5b60008083601f840112611602576116016115dd565b5b8235905067ffffffffffffffff81111561161f5761161e6115e2565b5b60208301915083600182028301111561163b5761163a6115e7565b5b9250929050565b60008060006040848603121561165b5761165a61110b565b5b600084013567ffffffffffffffff81111561167957611678611110565b5b611685868287016115be565b935050602084013567ffffffffffffffff8111156116a6576116a5611110565b5b6116b2868287016115ec565b92509250509250925092565b7f4e487b7100000000000000000000000000000000000000000000000000000000600052604160045260246000fd5b7f4e487b7100000000000000000000000000000000000000000000000000000000600052602260045260246000fd5b6000600282049050600182168061173457607f821691505b602082108103611747576117466116ed565b5b50919050565b7f546173646971693a20446f63756d656e74206e6f7420466f756e640000000000600082015250565b6000611783601b83611288565b915061178e8261174d565b602082019050919050565b600060208201905081810360008301526117b281611776565b9050919050565b60006040820190506117ce600083018561133f565b6117db602083018461133f565b9392505050565b7f546173646971693a20446f6b756d656e2073756461682074657272656769737460008201527f72617369206469206a6172696e67616e20426c6f636b636861696e2e00000000602082015250565b600061183e603c83611288565b9150611849826117e2565b604082019050919050565b6000602082019050818103600083015261186d81611831565b9050919050565b600080fd5b600080fd5b600080fd5b600080833560016020038436030381126118a05761189f611874565b5b80840192508235915067ffffffffffffffff8211156118c2576118c1611879565b5b6020830192506001820236038313156118de576118dd61187e565b5b509250929050565b600081905092915050565b82818337600083830152505050565b600061190c83856118e6565b93506119198385846118f1565b82840190509392505050565b6000611932828486611900565b91508190509392505050565b6000608082019050611953600083018761133f565b611960602083018661133f565b61196d604083018561133f565b61197a606083018461133f565b95945050505050565b7f546173646971693a2054616e64612074616e67616e20746964616b2073616800600082015250565b60006119b9601f83611288565b91506119c482611983565b602082019050919050565b600060208201905081810360008301526119e8816119ac565b9050919050565b60008190508160005260206000209050919050565b60006020601f8301049050919050565b600082821b905092915050565b600060088302611a517fffffffffffffffffffffffffffffffffffffffffffffffffffffffffffffffff82611a14565b611a5b8683611a14565b95508019841693508086168417925050509392505050565b6000819050919050565b6000611a98611a93611a8e8461130d565b611a73565b61130d565b9050919050565b6000819050919050565b611ab283611a7d565b611ac6611abe82611a9f565b848454611a21565b825550505050565b600090565b611adb611ace565b611ae6818484611aa9565b505050565b5b81811015611b0a57611aff600082611ad3565b600181019050611aec565b5050565b601f821115611b4f57611b20816119ef565b611b2984611a04565b81016020851015611b38578190505b611b4c611b4485611a04565b830182611aeb565b50505b505050565b600082821c905092915050565b6000611b7260001984600802611b54565b1980831691505092915050565b6000611b8b8383611b61565b9150826002028217905092915050565b611ba48261127d565b67ffffffffffffffff811115611bbd57611bbc6116be565b5b611bc7825461171c565b611bd2828285611b0e565b600060209050601f831160018114611c055760008415611bf3578287015190505b611bfd8582611b7f565b865550611c65565b601f198416611c13866119ef565b60005b82811015611c3b57848901518255600182019150602085019450602081019050611c16565b86831015611c585784890151611c54601f891682611b61565b8355505b6001600288020188555050505b505050505050565b6000611c798385611288565b9350611c868385846118f1565b611c8f836112c3565b840190509392505050565b60006060820190508181036000830152611cb5818688611c6d565b9050611cc46020830185611326565b611cd16040830184611317565b95945050505050565b7f4f776e61626c653a206e6577206f776e657220697320746865207a65726f206160008201527f6464726573730000000000000000000000000000000000000000000000000000602082015250565b6000611d36602683611288565b9150611d4182611cda565b604082019050919050565b60006020820190508181036000830152611d6581611d29565b9050919050565b7f4f776e61626c653a2063616c6c6572206973206e6f7420746865206f776e6572600082015250565b6000611da2602083611288565b9150611dad82611d6c565b602082019050919050565b60006020820190508181036000830152611dd181611d95565b9050919050565b7f4e487b7100000000000000000000000000000000000000000000000000000000600052602160045260246000fd5b7f45434453413a20696e76616c6964207369676e61747572650000000000000000600082015250565b6000611e3d601883611288565b9150611e4882611e07565b602082019050919050565b60006020820190508181036000830152611e6c81611e30565b9050919050565b7f45434453413a20696e76616c6964207369676e6174757265206c656e67746800600082015250565b6000611ea9601f83611288565b9150611eb482611e73565b602082019050919050565b60006020820190508181036000830152611ed881611e9c565b9050919050565b7f45434453413a20696e76616c6964207369676e6174757265202773272076616c60008201527f7565000000000000000000000000000000000000000000000000000000000000602082015250565b6000611f3b602283611288565b9150611f4682611edf565b604082019050919050565b60006020820190508181036000830152611f6a81611f2e565b9050919050565b600060a082019050611f86600083018861133f565b611f93602083018761133f565b611fa0604083018661133f565b611fad6060830185611317565b611fba6080830184611326565b9695505050505050565b600060ff82169050919050565b611fda81611fc4565b82525050565b6000608082019050611ff5600083018761133f565b6120026020830186611fd1565b61200f604083018561133f565b61201c606083018461133f565b9594505050505056fea2646970667358221220338de32713659a7faf8b055058cd3e643b55aacd86193c14ee1dfc58c46f237864736f6c63430008130033",
    "linkReferences": {}
  },
  "methodIdentifiers": {
    "eip712Domain()": "84b0196e",
    "generateDocumentKey(bytes32,bytes32)": "bd2f588f",
    "getDocument(bytes32)": "b10d6b41",
    "getDomainSeparator()": "ed24911d",
    "isAuthorizedValidator(address)": "75a197bd",
    "issueDocument((string,bytes32,bytes32),bytes)": "c579f21c",
    "owner()": "8da5cb5b",
    "renounceOwnership()": "715018a6",
    "setValidator(address,bool)": "4623c91d",
    "transferOwnership(address)": "f2fde38b"
  },
  "id": 26
}