{
  "abi": [
    {
      "type": "constructor",
      "inputs": [
        {
          "name": "initialOwner",
          "type": "address",
          "internalType": "address"
        }
      ],
      "stateMutability": "nonpayable"
    },
    {
      "type": "function",
      "name": "checkDocument",
      "inputs": [
        {
          "name": "_docHash",
          "type": "bytes32",
          "internalType": "bytes32"
        }
      ],
      "outputs": [
        {
          "name": "",
          "type": "bool",
          "internalType": "bool"
        }
      ],
      "stateMutability": "view"
    },
    {
      "type": "function",
      "name": "eip712Domain",
      "inputs": [],
      "outputs": [
        {
          "name": "fields",
          "type": "bytes1",
          "internalType": "bytes1"
        },
        {
          "name": "name",
          "type": "string",
          "internalType": "string"
        },
        {
          "name": "version",
          "type": "string",
          "internalType": "string"
        },
        {
          "name": "chainId",
          "type": "uint256",
          "internalType": "uint256"
        },
        {
          "name": "verifyingContract",
          "type": "address",
          "internalType": "address"
        },
        {
          "name": "salt",
          "type": "bytes32",
          "internalType": "bytes32"
        },
        {
          "name": "extensions",
          "type": "uint256[]",
          "internalType": "uint256[]"
        }
      ],
      "stateMutability": "view"
    },
    {
      "type": "function",
      "name": "getDomainSeparator",
      "inputs": [],
      "outputs": [
        {
          "name": "",
          "type": "bytes32",
          "internalType": "bytes32"
        }
      ],
      "stateMutability": "view"
    },
    {
      "type": "function",
      "name": "isAuthorizedSigner",
      "inputs": [
        {
          "name": "_signer",
          "type": "address",
          "internalType": "address"
        }
      ],
      "outputs": [
        {
          "name": "",
          "type": "bool",
          "internalType": "bool"
        }
      ],
      "stateMutability": "view"
    },
    {
      "type": "function",
      "name": "issueDocument",
      "inputs": [
        {
          "name": "doc",
          "type": "tuple",
          "internalType": "struct Tasdiqi.Document",
          "components": [
            {
              "name": "nomor_surat",
              "type": "string",
              "internalType": "string"
            },
            {
              "name": "nim",
              "type": "string",
              "internalType": "string"
            },
            {
              "name": "doc_hash",
              "type": "bytes32",
              "internalType": "bytes32"
            }
          ]
        },
        {
          "name": "signature",
          "type": "bytes",
          "internalType": "bytes"
        }
      ],
      "outputs": [],
      "stateMutability": "nonpayable"
    },
    {
      "type": "function",
      "name": "owner",
      "inputs": [],
      "outputs": [
        {
          "name": "",
          "type": "address",
          "internalType": "address"
        }
      ],
      "stateMutability": "view"
    },
    {
      "type": "function",
      "name": "renounceOwnership",
      "inputs": [],
      "outputs": [],
      "stateMutability": "nonpayable"
    },
    {
      "type": "function",
      "name": "transferOwnership",
      "inputs": [
        {
          "name": "newOwner",
          "type": "address",
          "internalType": "address"
        }
      ],
      "outputs": [],
      "stateMutability": "nonpayable"
    },
    {
      "type": "function",
      "name": "verifiedDocuments",
      "inputs": [
        {
          "name": "",
          "type": "bytes32",
          "internalType": "bytes32"
        }
      ],
      "outputs": [
        {
          "name": "",
          "type": "bool",
          "internalType": "bool"
        }
      ],
      "stateMutability": "view"
    },
    {
      "type": "event",
      "name": "DocumentIssued",
      "inputs": [
        {
          "name": "docHash",
          "type": "bytes32",
          "indexed": true,
          "internalType": "bytes32"
        },
        {
          "name": "nomorSurat",
          "type": "string",
          "indexed": false,
          "internalType": "string"
        },
        {
          "name": "signer",
          "type": "address",
          "indexed": true,
          "internalType": "address"
        }
      ],
      "anonymous": false
    },
    {
      "type": "event",
      "name": "EIP712DomainChanged",
      "inputs": [],
      "anonymous": false
    },
    {
      "type": "event",
      "name": "OwnershipTransferred",
      "inputs": [
        {
          "name": "previousOwner",
          "type": "address",
          "indexed": true,
          "internalType": "address"
        },
        {
          "name": "newOwner",
          "type": "address",
          "indexed": true,
          "internalType": "address"
        }
      ],
      "anonymous": false
    },
    {
      "type": "error",
      "name": "ECDSAInvalidSignature",
      "inputs": []
    },
    {
      "type": "error",
      "name": "ECDSAInvalidSignatureLength",
      "inputs": [
        {
          "name": "length",
          "type": "uint256",
          "internalType": "uint256"
        }
      ]
    },
    {
      "type": "error",
      "name": "ECDSAInvalidSignatureS",
      "inputs": [
        {
          "name": "s",
          "type": "bytes32",
          "internalType": "bytes32"
        }
      ]
    },
    {
      "type": "error",
      "name": "InvalidShortString",
      "inputs": []
    },
    {
      "type": "error",
      "name": "OwnableInvalidOwner",
      "inputs": [
        {
          "name": "owner",
          "type": "address",
          "internalType": "address"
        }
      ]
    },
    {
      "type": "error",
      "name": "OwnableUnauthorizedAccount",
      "inputs": [
        {
          "name": "account",
          "type": "address",
          "internalType": "address"
        }
      ]
    },
    {
      "type": "error",
      "name": "StringTooLong",
      "inputs": [
        {
          "name": "str",
          "type": "string",
          "internalType": "string"
        }
      ]
    }
  ],
  "bytecode": {
    "object": "0x610160604052348015610010575f5ffd5b50604051611f7b380380611f7b83398181016040528101906100329190610404565b806040518060400160405280600d81526020017f546173646971692d554e494441000000000000000000000000000000000000008152506040518060400160405280600181526020017f31000000000000000000000000000000000000000000000000000000000000008152506100b25f836101ce60201b90919060201c565b61012081815250506100ce6001826101ce60201b90919060201c565b6101408181525050818051906020012060e08181525050808051906020012061010081815250504660a0818152505061010b61021b60201b60201c565b608081815250503073ffffffffffffffffffffffffffffffffffffffff1660c08173ffffffffffffffffffffffffffffffffffffffff168152505050505f73ffffffffffffffffffffffffffffffffffffffff168173ffffffffffffffffffffffffffffffffffffffff16036101b8575f6040517f1e4fbdf70000000000000000000000000000000000000000000000000000000081526004016101af919061043e565b60405180910390fd5b6101c78161027560201b60201c565b5050610905565b5f6020835110156101ef576101e88361033860201b60201c565b9050610215565b826101ff8361039d60201b60201c565b5f01908161020d91906106a5565b5060ff5f1b90505b92915050565b5f7f8b73c3c69bb8fe3d512ecc4cf759cc79239f7b179b0ffacaa9a75d522b39400f60e05161010051463060405160200161025a95949392919061079b565b60405160208183030381529060405280519060200120905090565b5f60025f9054906101000a900473ffffffffffffffffffffffffffffffffffffffff1690508160025f6101000a81548173ffffffffffffffffffffffffffffffffffffffff021916908373ffffffffffffffffffffffffffffffffffffffff1602179055508173ffffffffffffffffffffffffffffffffffffffff168173ffffffffffffffffffffffffffffffffffffffff167f8be0079c531659141344cd1fd0a4f28419497f9722a3daafe3b4186f6b6457e060405160405180910390a35050565b5f5f829050601f8151111561038457826040517f305a27a900000000000000000000000000000000000000000000000000000000815260040161037b9190610852565b60405180910390fd5b8051816103909061089f565b5f1c175f1b915050919050565b5f819050919050565b5f5ffd5b5f73ffffffffffffffffffffffffffffffffffffffff82169050919050565b5f6103d3826103aa565b9050919050565b6103e3816103c9565b81146103ed575f5ffd5b50565b5f815190506103fe816103da565b92915050565b5f60208284031215610419576104186103a6565b5b5f610426848285016103f0565b91505092915050565b610438816103c9565b82525050565b5f6020820190506104515f83018461042f565b92915050565b5f81519050919050565b7f4e487b71000000000000000000000000000000000000000000000000000000005f52604160045260245ffd5b7f4e487b71000000000000000000000000000000000000000000000000000000005f52602260045260245ffd5b5f60028204905060018216806104d257607f821691505b6020821081036104e5576104e461048e565b5b50919050565b5f819050815f5260205f209050919050565b5f6020601f8301049050919050565b5f82821b905092915050565b5f600883026105477fffffffffffffffffffffffffffffffffffffffffffffffffffffffffffffffff8261050c565b610551868361050c565b95508019841693508086168417925050509392505050565b5f819050919050565b5f819050919050565b5f61059561059061058b84610569565b610572565b610569565b9050919050565b5f819050919050565b6105ae8361057b565b6105c26105ba8261059c565b848454610518565b825550505050565b5f5f905090565b6105d96105ca565b6105e48184846105a5565b505050565b5f5b8281101561060a576105ff5f8284016105d1565b6001810190506105eb565b505050565b601f82111561065d578282111561065c57610629816104eb565b610632836104fd565b61063b856104fd565b6020861015610648575f90505b808301610657828403826105e9565b505050505b5b505050565b5f82821c905092915050565b5f61067d5f1984600802610662565b1980831691505092915050565b5f610695838361066e565b9150826002028217905092915050565b6106ae82610457565b67ffffffffffffffff8111156106c7576106c6610461565b5b6106d182546104bb565b6106dc82828561060f565b5f60209050601f83116001811461070d575f84156106fb578287015190505b610705858261068a565b86555061076c565b601f19841661071b866104eb565b5f5b828110156107425784890151825560018201915060208501945060208101905061071d565b8683101561075f578489015161075b601f89168261066e565b8355505b6001600288020188555050505b505050505050565b5f819050919050565b61078681610774565b82525050565b61079581610569565b82525050565b5f60a0820190506107ae5f83018861077d565b6107bb602083018761077d565b6107c8604083018661077d565b6107d5606083018561078c565b6107e2608083018461042f565b9695505050505050565b5f82825260208201905092915050565b8281835e5f83830152505050565b5f601f19601f8301169050919050565b5f61082482610457565b61082e81856107ec565b935061083e8185602086016107fc565b6108478161080a565b840191505092915050565b5f6020820190508181035f83015261086a818461081a565b905092915050565b5f81519050919050565b5f819050602082019050919050565b5f6108968251610774565b80915050919050565b5f6108a982610872565b826108b38461087c565b90506108be8161088b565b925060208210156108fe576108f97fffffffffffffffffffffffffffffffffffffffffffffffffffffffffffffffff8360200360080261050c565b831692505b5050919050565b60805160a05160c05160e0516101005161012051610140516116256109565f395f61078a01525f61074f01525f6109ae01525f61098d01525f6107bf01525f61081501525f61083e01526116255ff3fe608060405234801561000f575f5ffd5b5060043610610091575f3560e01c80638da5cb5b116100645780638da5cb5b14610123578063cbe8802614610141578063ed24911d14610171578063f2fde38b1461018f578063f32d32e9146101ab57610091565b80630916f6951461009557806349045e16146100c5578063715018a6146100f557806384b0196e146100ff575b5f5ffd5b6100af60048036038101906100aa9190610dd7565b6101c7565b6040516100bc9190610e1c565b60405180910390f35b6100df60048036038101906100da9190610e8f565b6101ed565b6040516100ec9190610e1c565b60405180910390f35b6100fd61022b565b005b61010761023e565b60405161011a9796959493929190611051565b60405180910390f35b61012b6102e3565b60405161013891906110d3565b60405180910390f35b61015b60048036038101906101569190610dd7565b61030b565b6040516101689190610e1c565b60405180910390f35b610179610328565b60405161018691906110ec565b60405180910390f35b6101a960048036038101906101a49190610e8f565b610336565b005b6101c560048036038101906101c09190611188565b6103ba565b005b5f60035f8381526020019081526020015f205f9054906101000a900460ff169050919050565b5f6101f66102e3565b73ffffffffffffffffffffffffffffffffffffffff168273ffffffffffffffffffffffffffffffffffffffff16149050919050565b6102336105fd565b61023c5f610684565b565b5f6060805f5f5f606061024f610747565b610257610781565b46305f5f1b5f67ffffffffffffffff81111561027657610275611201565b5b6040519080825280602002602001820160405280156102a45781602001602082028036833780820191505090505b507f0f00000000000000000000000000000000000000000000000000000000000000959493929190965096509650965096509650965090919293949596565b5f60025f9054906101000a900473ffffffffffffffffffffffffffffffffffffffff16905090565b6003602052805f5260405f205f915054906101000a900460ff1681565b5f6103316107bc565b905090565b61033e6105fd565b5f73ffffffffffffffffffffffffffffffffffffffff168173ffffffffffffffffffffffffffffffffffffffff16036103ae575f6040517f1e4fbdf70000000000000000000000000000000000000000000000000000000081526004016103a591906110d3565b60405180910390fd5b6103b781610684565b50565b60035f846040013581526020019081526020015f205f9054906101000a900460ff161561041c576040517f08c379a00000000000000000000000000000000000000000000000000000000081526004016104139061129e565b60405180910390fd5b5f7f32aafdcab72104c980ca5173fdc9d69cd98f901348cacf16f5fdc1da834ab36984805f019061044d91906112c8565b60405161045b929190611366565b604051809103902085806020019061047391906112c8565b604051610481929190611366565b604051809103902086604001356040516020016104a1949392919061137e565b6040516020818303038152906040528051906020012090505f6104c382610872565b90505f61051c85858080601f0160208091040260200160405190810160405280939291908181526020018383808284375f81840152601f19601f820116905080830192505050505050508361088b90919063ffffffff16565b9050610527816101ed565b610566576040517f08c379a000000000000000000000000000000000000000000000000000000000815260040161055d90611431565b60405180910390fd5b600160035f886040013581526020019081526020015f205f6101000a81548160ff0219169083151502179055508073ffffffffffffffffffffffffffffffffffffffff1686604001357f09ad432a53a5cae3edf1f3aeea10fd1518407b81bc87c507aaa84ca2d70c859a88805f01906105df91906112c8565b6040516105ed92919061147b565b60405180910390a3505050505050565b6106056108b5565b73ffffffffffffffffffffffffffffffffffffffff166106236102e3565b73ffffffffffffffffffffffffffffffffffffffff1614610682576106466108b5565b6040517f118cdaa700000000000000000000000000000000000000000000000000000000815260040161067991906110d3565b60405180910390fd5b565b5f60025f9054906101000a900473ffffffffffffffffffffffffffffffffffffffff1690508160025f6101000a81548173ffffffffffffffffffffffffffffffffffffffff021916908373ffffffffffffffffffffffffffffffffffffffff1602179055508173ffffffffffffffffffffffffffffffffffffffff168173ffffffffffffffffffffffffffffffffffffffff167f8be0079c531659141344cd1fd0a4f28419497f9722a3daafe3b4186f6b6457e060405160405180910390a35050565b606061077c5f7f00000000000000000000000000000000000000000000000000000000000000006108bc90919063ffffffff16565b905090565b60606107b760017f00000000000000000000000000000000000000000000000000000000000000006108bc90919063ffffffff16565b905090565b5f7f000000000000000000000000000000000000000000000000000000000000000073ffffffffffffffffffffffffffffffffffffffff163073ffffffffffffffffffffffffffffffffffffffff1614801561083757507f000000000000000000000000000000000000000000000000000000000000000046145b15610864577f0000000000000000000000000000000000000000000000000000000000000000905061086f565b61086c610969565b90505b90565b5f61088461087e6107bc565b836109fe565b9050919050565b5f5f5f5f6108998686610a3e565b9250925092506108a98282610a93565b82935050505092915050565b5f33905090565b606060ff5f1b83146108d8576108d183610bf5565b9050610963565b8180546108e4906114ca565b80601f0160208091040260200160405190810160405280929190818152602001828054610910906114ca565b801561095b5780601f106109325761010080835404028352916020019161095b565b820191905f5260205f20905b81548152906001019060200180831161093e57829003601f168201915b505050505090505b92915050565b5f7f8b73c3c69bb8fe3d512ecc4cf759cc79239f7b179b0ffacaa9a75d522b39400f7f00000000000000000000000000000000000000000000000000000000000000007f000000000000000000000000000000000000000000000000000000000000000046306040516020016109e39594939291906114fa565b60405160208183030381529060405280519060200120905090565b5f6040517f190100000000000000000000000000000000000000000000000000000000000081528360028201528260228201526042812091505092915050565b5f5f5f6041845103610a7e575f5f5f602087015192506040870151915060608701515f1a9050610a7088828585610c67565b955095509550505050610a8c565b5f600285515f1b9250925092505b9250925092565b5f6003811115610aa657610aa561154b565b5b826003811115610ab957610ab861154b565b5b0315610bf15760016003811115610ad357610ad261154b565b5b826003811115610ae657610ae561154b565b5b03610b1d576040517ff645eedf00000000000000000000000000000000000000000000000000000000815260040160405180910390fd5b60026003811115610b3157610b3061154b565b5b826003811115610b4457610b4361154b565b5b03610b8857805f1c6040517ffce698f7000000000000000000000000000000000000000000000000000000008152600401610b7f9190611578565b60405180910390fd5b600380811115610b9b57610b9a61154b565b5b826003811115610bae57610bad61154b565b5b03610bf057806040517fd78bce0c000000000000000000000000000000000000000000000000000000008152600401610be791906110ec565b60405180910390fd5b5b5050565b60605f610c0183610d4e565b90505f602067ffffffffffffffff811115610c1f57610c1e611201565b5b6040519080825280601f01601f191660200182016040528015610c515781602001600182028036833780820191505090505b5090508181528360208201528092505050919050565b5f5f5f7f7fffffffffffffffffffffffffffffff5d576e7357a4501ddfe92f46681b20a0845f1c1115610ca3575f600385925092509250610d44565b5f6001888888886040515f8152602001604052604051610cc694939291906115ac565b6020604051602081039080840390855afa158015610ce6573d5f5f3e3d5ffd5b5050506020604051035190505f73ffffffffffffffffffffffffffffffffffffffff168173ffffffffffffffffffffffffffffffffffffffff1603610d37575f60015f5f1b93509350935050610d44565b805f5f5f1b935093509350505b9450945094915050565b5f5f60ff835f1c169050601f811115610d93576040517fb3512b0c00000000000000000000000000000000000000000000000000000000815260040160405180910390fd5b80915050919050565b5f5ffd5b5f5ffd5b5f819050919050565b610db681610da4565b8114610dc0575f5ffd5b50565b5f81359050610dd181610dad565b92915050565b5f60208284031215610dec57610deb610d9c565b5b5f610df984828501610dc3565b91505092915050565b5f8115159050919050565b610e1681610e02565b82525050565b5f602082019050610e2f5f830184610e0d565b92915050565b5f73ffffffffffffffffffffffffffffffffffffffff82169050919050565b5f610e5e82610e35565b9050919050565b610e6e81610e54565b8114610e78575f5ffd5b50565b5f81359050610e8981610e65565b92915050565b5f60208284031215610ea457610ea3610d9c565b5b5f610eb184828501610e7b565b91505092915050565b5f7fff0000000000000000000000000000000000000000000000000000000000000082169050919050565b610eee81610eba565b82525050565b5f81519050919050565b5f82825260208201905092915050565b8281835e5f83830152505050565b5f601f19601f8301169050919050565b5f610f3682610ef4565b610f408185610efe565b9350610f50818560208601610f0e565b610f5981610f1c565b840191505092915050565b5f819050919050565b610f7681610f64565b82525050565b610f8581610e54565b82525050565b610f9481610da4565b82525050565b5f81519050919050565b5f82825260208201905092915050565b5f819050602082019050919050565b610fcc81610f64565b82525050565b5f610fdd8383610fc3565b60208301905092915050565b5f602082019050919050565b5f610fff82610f9a565b6110098185610fa4565b935061101483610fb4565b805f5b8381101561104457815161102b8882610fd2565b975061103683610fe9565b925050600181019050611017565b5085935050505092915050565b5f60e0820190506110645f83018a610ee5565b81810360208301526110768189610f2c565b9050818103604083015261108a8188610f2c565b90506110996060830187610f6d565b6110a66080830186610f7c565b6110b360a0830185610f8b565b81810360c08301526110c58184610ff5565b905098975050505050505050565b5f6020820190506110e65f830184610f7c565b92915050565b5f6020820190506110ff5f830184610f8b565b92915050565b5f5ffd5b5f6060828403121561111e5761111d611105565b5b81905092915050565b5f5ffd5b5f5ffd5b5f5ffd5b5f5f83601f84011261114857611147611127565b5b8235905067ffffffffffffffff8111156111655761116461112b565b5b6020830191508360018202830111156111815761118061112f565b5b9250929050565b5f5f5f6040848603121561119f5761119e610d9c565b5b5f84013567ffffffffffffffff8111156111bc576111bb610da0565b5b6111c886828701611109565b935050602084013567ffffffffffffffff8111156111e9576111e8610da0565b5b6111f586828701611133565b92509250509250925092565b7f4e487b71000000000000000000000000000000000000000000000000000000005f52604160045260245ffd5b7f546173646971693a20446f6b756d656e207375646168207465726461667461725f8201527f20646920426c6f636b636861696e2e0000000000000000000000000000000000602082015250565b5f611288602f83610efe565b91506112938261122e565b604082019050919050565b5f6020820190508181035f8301526112b58161127c565b9050919050565b5f5ffd5b5f5ffd5b5f5ffd5b5f5f833560016020038436030381126112e4576112e36112bc565b5b80840192508235915067ffffffffffffffff821115611306576113056112c0565b5b602083019250600182023603831315611322576113216112c4565b5b509250929050565b5f81905092915050565b828183375f83830152505050565b5f61134d838561132a565b935061135a838584611334565b82840190509392505050565b5f611372828486611342565b91508190509392505050565b5f6080820190506113915f830187610f8b565b61139e6020830186610f8b565b6113ab6040830185610f8b565b6113b86060830184610f8b565b95945050505050565b7f546173646971693a2054616e64612074616e67616e20746964616b20736168205f8201527f617461752062756b616e2064617269206269726f000000000000000000000000602082015250565b5f61141b603483610efe565b9150611426826113c1565b604082019050919050565b5f6020820190508181035f8301526114488161140f565b9050919050565b5f61145a8385610efe565b9350611467838584611334565b61147083610f1c565b840190509392505050565b5f6020820190508181035f83015261149481848661144f565b90509392505050565b7f4e487b71000000000000000000000000000000000000000000000000000000005f52602260045260245ffd5b5f60028204905060018216806114e157607f821691505b6020821081036114f4576114f361149d565b5b50919050565b5f60a08201905061150d5f830188610f8b565b61151a6020830187610f8b565b6115276040830186610f8b565b6115346060830185610f6d565b6115416080830184610f7c565b9695505050505050565b7f4e487b71000000000000000000000000000000000000000000000000000000005f52602160045260245ffd5b5f60208201905061158b5f830184610f6d565b92915050565b5f60ff82169050919050565b6115a681611591565b82525050565b5f6080820190506115bf5f830187610f8b565b6115cc602083018661159d565b6115d96040830185610f8b565b6115e66060830184610f8b565b9594505050505056fea2646970667358221220d8360f50bc4c8e501d5d61b1c23d9081be7412198ef3fd619586334c9b2c47a464736f6c63430008210033",
    "linkReferences": {}
  },
  "methodIdentifiers": {
    "checkDocument(bytes32)": "0916f695",
    "eip712Domain()": "84b0196e",
    "getDomainSeparator()": "ed24911d",
    "isAuthorizedSigner(address)": "49045e16",
    "issueDocument((string,string,bytes32),bytes)": "f32d32e9",
    "owner()": "8da5cb5b",
    "renounceOwnership()": "715018a6",
    "transferOwnership(address)": "f2fde38b",
    "verifiedDocuments(bytes32)": "cbe88026"
  },
  "id": 14
}